Component: ARM Compiler 5.06 update 7 (build 960) Tool: armlink [4d3601]

==============================================================================

Section Cross References

    main.o(.text) refers to oled.o(.text) for OLED_Init
    main.o(.text) refers to mq3.o(.text) for mq3_config
    main.o(.text) refers to uart.o(.text) for uart2_wifi_init
    main.o(.text) refers to wifi.o(.text) for ESP8266_Init
    main.o(.text) refers to buzzer.o(.text) for buzzer_config
    main.o(.text) refers to thread.o(.text) for rt_thread_mdelay
    oled.o(.text) refers to pin.o(.text) for rt_pin_write
    oled.o(.text) refers to oled.o(.bss) for OLED_GRAM
    oled.o(.text) refers to oled.o(.constdata) for asc2_0806
    oled.o(.text) refers to thread.o(.text) for rt_thread_mdelay
    oled.o(.text) refers to mq3.o(.text) for mq3_mb_recv
    oled.o(.text) refers to kservice.o(.text) for rt_sprintf
    oled.o(.text) refers to atoi.o(.text) for atoi
    oled.o(.text) refers to oled.o(.data) for oled_thread_heater
    oled.o(FSymTab) refers to oled.o(.rodata.name) for __fsym_led_test_name
    oled.o(FSymTab) refers to oled.o(.text) for led_test
    mq3.o(.text) refers to ipc.o(.text) for rt_mb_send
    mq3.o(.text) refers to adc.o(.text) for rt_adc_read
==============================================================================

Removing Unused input sections from the image.

    Removing main.o(.rev16_text), (4 bytes).
    Removing main.o(.revsh_text), (4 bytes).
    Removing main.o(.rrx_text), (6 bytes).
    Removing oled.o(.rev16_text), (4 bytes).
    Removing oled.o(.revsh_text), (4 bytes).
    Removing oled.o(.rrx_text), (6 bytes).
    Removing mq3.o(.rev16_text), (4 bytes).
    Removing mq3.o(.revsh_text), (4 bytes).
    Removing mq3.o(.rrx_text), (6 bytes).
    Removing sys.o(.rev16_text), (4 bytes).
    Removing sys.o(.revsh_text), (4 bytes).
    Removing sys.o(.rrx_text), (6 bytes).
    Removing sys.o(.text), (12 bytes).
    Removing wifi.o(.rev16_text), (4 bytes).
    Removing wifi.o(.revsh_text), (4 bytes).
    Removing wifi.o(.rrx_text), (6 bytes).
    Removing uart.o(.rev16_text), (4 bytes).
    Removing uart.o(.revsh_text), (4 bytes).
==============================================================================

Image Symbol Table

    Local Symbols

    Symbol Name                              Value     Ov Type        Size  Object(Section)

    ../clib/angel/boardlib.s                 0x00000000   Number         0  boardshut.o ABSOLUTE
    ../clib/angel/boardlib.s                 0x00000000   Number         0  boardinit3.o ABSOLUTE
    ../clib/angel/boardlib.s                 0x00000000   Number         0  boardinit1.o ABSOLUTE
    ../clib/angel/boardlib.s                 0x00000000   Number         0  boardinit2.o ABSOLUTE
    ../clib/angel/dczerorl2.s                0x00000000   Number         0  __dczerorl2.o ABSOLUTE
    ../clib/angel/handlers.s                 0x00000000   Number         0  __scatter_zi.o ABSOLUTE
    ../clib/angel/kernel.s                   0x00000000   Number         0  __rtentry.o ABSOLUTE
    ../clib/angel/kernel.s                   0x00000000   Number         0  rtexit.o ABSOLUTE
    ../clib/angel/kernel.s                   0x00000000   Number         0  rtexit2.o ABSOLUTE
    ../clib/angel/kernel.s                   0x00000000   Number         0  __rtentry2.o ABSOLUTE
    ../clib/angel/kernel.s                   0x00000000   Number         0  __rtentry4.o ABSOLUTE
    ../clib/angel/rt.s                       0x00000000   Number         0  rt_locale_intlibspace.o ABSOLUTE
    ../clib/angel/rt.s                       0x00000000   Number         0  rt_ctype_table.o ABSOLUTE
    ../clib/angel/rt.s                       0x00000000   Number         0  rt_locale.o ABSOLUTE
    ../clib/angel/rt.s                       0x00000000   Number         0  rt_errno_addr.o ABSOLUTE
    ../clib/angel/rt.s                       0x00000000   Number         0  rt_errno_addr_intlibspace.o ABSOLUTE
    ../clib/angel/rt.s                       0x00000000   Number         0  rt_raise.o ABSOLUTE
    ../clib/angel/scatter.s                  0x00000000   Number         0  __scatter.o ABSOLUTE
    ../clib/angel/startup.s                  0x00000000   Number         0  __main.o ABSOLUTE
    ../clib/angel/sys.s                      0x00000000   Number         0  use_no_semi.o ABSOLUTE
    ../clib/angel/sys.s                      0x00000000   Number         0  sys_stackheap_outer.o ABSOLUTE
    ../clib/angel/sys.s                      0x00000000   Number         0  libspace.o ABSOLUTE
    ../clib/armsys.c                         0x00000000   Number         0  _get_argv_nomalloc.o ABSOLUTE
    ../clib/armsys.c                         0x00000000   Number         0  argv_veneer.o ABSOLUTE
    ../clib/armsys.c                         0x00000000   Number         0  no_argv.o ABSOLUTE
    ../clib/armsys.c                         0x00000000   Number         0  argv_veneer.o ABSOLUTE
    ../clib/heapalloc.c                      0x00000000   Number         0  hguard.o ABSOLUTE
    ../clib/heapalloc.c                      0x00000000   Number         0  hrguard.o ABSOLUTE
    ../clib/heapaux.c                        0x00000000   Number         0  heapauxi.o ABSOLUTE
    ../clib/libinit.s                        0x00000000   Number         0  libinit2.o ABSOLUTE
    ../clib/libinit.s                        0x00000000   Number         0  libshutdown.o ABSOLUTE
    ../clib/libinit.s                        0x00000000   Number         0  libshutdown2.o ABSOLUTE
    ../clib/libinit.s                        0x00000000   Number         0  libinit.o ABSOLUTE
    ../clib/locale.s                         0x00000000   Number         0  lc_ctype_c.o ABSOLUTE
    ../clib/memcpset.s                       0x00000000   Number         0  rt_memclr.o ABSOLUTE
    ../clib/memcpset.s                       0x00000000   Number         0  strncpy.o ABSOLUTE
    ../clib/memcpset.s                       0x00000000   Number         0  rt_memclr_w.o ABSOLUTE
    ../clib/memcpset.s                       0x00000000   Number         0  rt_memcpy_w.o ABSOLUTE
    ../clib/memcpset.s                       0x00000000   Number         0  strcmpv7m.o ABSOLUTE
    ../clib/misc.s                           0x00000000   Number         0  printf_stubs.o ABSOLUTE
    ../clib/printf.c                         0x00000000   Number         0  _sputc.o ABSOLUTE
    ../clib/printf.c                         0x00000000   Number         0  __printf_ss.o ABSOLUTE
    ../clib/printf.c                         0x00000000   Number         0  __printf_flags.o ABSOLUTE
    ../clib/printf.c                         0x00000000   Number         0  _printf_dec.o ABSOLUTE
    ../clib/printf.c                         0x00000000   Number         0  __printf.o ABSOLUTE
    ../clib/printf.c                         0x00000000   Number         0  _printf_char_common.o ABSOLUTE
    ../clib/printf.c                         0x00000000   Number         0  _printf_intcommon.o ABSOLUTE
    ../clib/printf.c                         0x00000000   Number         0  __printf_nopercent.o ABSOLUTE
    ../clib/printf.c                         0x00000000   Number         0  _printf_pad.o ABSOLUTE
    ../clib/printf.c                         0x00000000   Number         0  __2sprintf.o ABSOLUTE
    ../clib/printf.c                         0x00000000   Number         0  noretval__2sprintf.o ABSOLUTE
    ../clib/printf.c                         0x00000000   Number         0  __printf_flags_ss_wp.o ABSOLUTE
    ../clib/printf.c                         0x00000000   Number         0  __printf_ss_wp.o ABSOLUTE
    ../clib/printf.c                         0x00000000   Number         0  __printf_flags_wp.o ABSOLUTE
    ../clib/printf.c                         0x00000000   Number         0  __printf_wp.o ABSOLUTE
    ../clib/printf.c                         0x00000000   Number         0  __printf_flags_ss.o ABSOLUTE
    ../clib/printf_percent.s                 0x00000000   Number         0  _printf_percent_end.o ABSOLUTE
    ../clib/printf_percent.s                 0x00000000   Number         0  _printf_percent.o ABSOLUTE
    ../clib/printf_percent.s                 0x00000000   Number         0  _printf_d.o ABSOLUTE
    ../clib/scanf.c                          0x00000000   Number         0  strtol.o ABSOLUTE
    ../clib/scanf.c                          0x00000000   Number         0  _strtoul.o ABSOLUTE
    ../clib/scanf.c                          0x00000000   Number         0  _chval.o ABSOLUTE
    ../clib/scanf.c                          0x00000000   Number         0  atoi.o ABSOLUTE
    ../clib/signal.c                         0x00000000   Number         0  defsig_segv_inner.o ABSOLUTE
    ../clib/signal.c                         0x00000000   Number         0  defsig_other.o ABSOLUTE
    ../clib/signal.c                         0x00000000   Number         0  defsig_rtmem_outer.o ABSOLUTE
    ../clib/signal.c                         0x00000000   Number         0  defsig_abrt_inner.o ABSOLUTE
    ../clib/signal.c                         0x00000000   Number         0  defsig_exit.o ABSOLUTE
    ../clib/signal.c                         0x00000000   Number         0  defsig_cppl_inner.o ABSOLUTE
    ../clib/signal.c                         0x00000000   Number         0  defsig_pvfn_inner.o ABSOLUTE
    ../clib/signal.c                         0x00000000   Number         0  defsig_stak_inner.o ABSOLUTE
    ../clib/signal.c                         0x00000000   Number         0  defsig_general.o ABSOLUTE
    ../clib/signal.c                         0x00000000   Number         0  __raise.o ABSOLUTE
    ../clib/signal.c                         0x00000000   Number         0  defsig_rtmem_formal.o ABSOLUTE
    ../clib/signal.c                         0x00000000   Number         0  defsig_rtred_inner.o ABSOLUTE
    ../clib/signal.c                         0x00000000   Number         0  defsig_fpe_inner.o ABSOLUTE
    ../clib/signal.c                         0x00000000   Number         0  defsig_rtmem_inner.o ABSOLUTE
    ../clib/signal.s                         0x00000000   Number         0  defsig.o ABSOLUTE
    ../clib/stdlib.c                         0x00000000   Number         0  exit.o ABSOLUTE
    ../clib/string.c                         0x00000000   Number         0  strcpy.o ABSOLUTE
    ../clib/string.c                         0x00000000   Number         0  strncmp.o ABSOLUTE
    ../clib/string.c                         0x00000000   Number         0  strlen.o ABSOLUTE
    ../clib/string.c                         0x00000000   Number         0  strcat.o ABSOLUTE
    ../clib/string.c                         0x00000000   Number         0  strstr.o ABSOLUTE
    ../clib/string.c                         0x00000000   Number         0  memcmp.o ABSOLUTE
    ../fplib/dcmpi.s                         0x00000000   Number         0  dcmpi.o ABSOLUTE
    ../fplib/dflt.s                          0x00000000   Number         0  dflt_clz.o ABSOLUTE
    ../fplib/dleqf.s                         0x00000000   Number         0  dleqf.o ABSOLUTE
    ../fplib/dnaninf.s                       0x00000000   Number         0  dnaninf.o ABSOLUTE
    ../fplib/drleqf.s                        0x00000000   Number         0  drleqf.o ABSOLUTE
    ../fplib/fpinit.s                        0x00000000   Number         0  fpinit.o ABSOLUTE
    ../fplib/usenofp.s                       0x00000000   Number         0  usenofp.o ABSOLUTE
    Libraries\N32_Std_Driver\CMSIS\device\startup\startup_n32g45x.s 0x00000000   Number         0  startup_n32g45x.o ABSOLUTE
    Libraries\N32_Std_Driver\CMSIS\device\system_n32g45x.c 0x00000000   Number         0  system_n32g45x.o ABSOLUTE
    Libraries\N32_Std_Driver\n32g45x_std_periph_driver\src\misc.c 0x00000000   Number         0  misc.o ABSOLUTE
    Libraries\N32_Std_Driver\n32g45x_std_periph_driver\src\n32g45x_adc.c 0x00000000   Number         0  n32g45x_adc.o ABSOLUTE
    Libraries\N32_Std_Driver\n32g45x_std_periph_driver\src\n32g45x_bkp.c 0x00000000   Number         0  n32g45x_bkp.o ABSOLUTE
    Libraries\N32_Std_Driver\n32g45x_std_periph_driver\src\n32g45x_can.c 0x00000000   Number         0  n32g45x_can.o ABSOLUTE
    Libraries\N32_Std_Driver\n32g45x_std_periph_driver\src\n32g45x_comp.c 0x00000000   Number         0  n32g45x_comp.o ABSOLUTE
    Libraries\N32_Std_Driver\n32g45x_std_periph_driver\src\n32g45x_crc.c 0x00000000   Number         0  n32g45x_crc.o ABSOLUTE
    Libraries\N32_Std_Driver\n32g45x_std_periph_driver\src\n32g45x_dac.c 0x00000000   Number         0  n32g45x_dac.o ABSOLUTE
    Libraries\N32_Std_Driver\n32g45x_std_periph_driver\src\n32g45x_dbg.c 0x00000000   Number         0  n32g45x_dbg.o ABSOLUTE
    Libraries\N32_Std_Driver\n32g45x_std_periph_driver\src\n32g45x_dma.c 0x00000000   Number         0  n32g45x_dma.o ABSOLUTE
    Libraries\N32_Std_Driver\n32g45x_std_periph_driver\src\n32g45x_dvp.c 0x00000000   Number         0  n32g45x_dvp.o ABSOLUTE
    Libraries\N32_Std_Driver\n32g45x_std_periph_driver\src\n32g45x_eth.c 0x00000000   Number         0  n32g45x_eth.o ABSOLUTE
    Libraries\N32_Std_Driver\n32g45x_std_periph_driver\src\n32g45x_exti.c 0x00000000   Number         0  n32g45x_exti.o ABSOLUTE
    Libraries\N32_Std_Driver\n32g45x_std_periph_driver\src\n32g45x_flash.c 0x00000000   Number         0  n32g45x_flash.o ABSOLUTE
    Libraries\N32_Std_Driver\n32g45x_std_periph_driver\src\n32g45x_gpio.c 0x00000000   Number         0  n32g45x_gpio.o ABSOLUTE
    Libraries\N32_Std_Driver\n32g45x_std_periph_driver\src\n32g45x_i2c.c 0x00000000   Number         0  n32g45x_i2c.o ABSOLUTE
    Libraries\N32_Std_Driver\n32g45x_std_periph_driver\src\n32g45x_iwdg.c 0x00000000   Number         0  n32g45x_iwdg.o ABSOLUTE
    Libraries\N32_Std_Driver\n32g45x_std_periph_driver\src\n32g45x_opamp.c 0x00000000   Number         0  n32g45x_opamp.o ABSOLUTE
    Libraries\N32_Std_Driver\n32g45x_std_periph_driver\src\n32g45x_pwr.c 0x00000000   Number         0  n32g45x_pwr.o ABSOLUTE
    Libraries\N32_Std_Driver\n32g45x_std_periph_driver\src\n32g45x_qspi.c 0x00000000   Number         0  n32g45x_qspi.o ABSOLUTE
    Libraries\N32_Std_Driver\n32g45x_std_periph_driver\src\n32g45x_rcc.c 0x00000000   Number         0  n32g45x_rcc.o ABSOLUTE
    Libraries\N32_Std_Driver\n32g45x_std_periph_driver\src\n32g45x_rtc.c 0x00000000   Number         0  n32g45x_rtc.o ABSOLUTE
    Libraries\N32_Std_Driver\n32g45x_std_periph_driver\src\n32g45x_sdio.c 0x00000000   Number         0  n32g45x_sdio.o ABSOLUTE
    Libraries\N32_Std_Driver\n32g45x_std_periph_driver\src\n32g45x_spi.c 0x00000000   Number         0  n32g45x_spi.o ABSOLUTE
    Libraries\N32_Std_Driver\n32g45x_std_periph_driver\src\n32g45x_tim.c 0x00000000   Number         0  n32g45x_tim.o ABSOLUTE
    Libraries\N32_Std_Driver\n32g45x_std_periph_driver\src\n32g45x_tsc.c 0x00000000   Number         0  n32g45x_tsc.o ABSOLUTE
    Libraries\N32_Std_Driver\n32g45x_std_periph_driver\src\n32g45x_usart.c 0x00000000   Number         0  n32g45x_usart.o ABSOLUTE
    Libraries\N32_Std_Driver\n32g45x_std_periph_driver\src\n32g45x_wwdg.c 0x00000000   Number         0  n32g45x_wwdg.o ABSOLUTE
    Libraries\N32_Std_Driver\n32g45x_std_periph_driver\src\n32g45x_xfmc.c 0x00000000   Number         0  n32g45x_xfmc.o ABSOLUTE
    Libraries\\N32_Std_Driver\\CMSIS\\device\\system_n32g45x.c 0x00000000   Number         0  system_n32g45x.o ABSOLUTE
    Libraries\\N32_Std_Driver\\n32g45x_std_periph_driver\\src\\misc.c 0x00000000   Number         0  misc.o ABSOLUTE
    Libraries\\N32_Std_Driver\\n32g45x_std_periph_driver\\src\\n32g45x_adc.c 0x00000000   Number         0  n32g45x_adc.o ABSOLUTE
    Libraries\\N32_Std_Driver\\n32g45x_std_periph_driver\\src\\n32g45x_bkp.c 0x00000000   Number         0  n32g45x_bkp.o ABSOLUTE
    Libraries\\N32_Std_Driver\\n32g45x_std_periph_driver\\src\\n32g45x_can.c 0x00000000   Number         0  n32g45x_can.o ABSOLUTE
    Libraries\\N32_Std_Driver\\n32g45x_std_periph_driver\\src\\n32g45x_comp.c 0x00000000   Number         0  n32g45x_comp.o ABSOLUTE
    Libraries\\N32_Std_Driver\\n32g45x_std_periph_driver\\src\\n32g45x_crc.c 0x00000000   Number         0  n32g45x_crc.o ABSOLUTE
    Libraries\\N32_Std_Driver\\n32g45x_std_periph_driver\\src\\n32g45x_dac.c 0x00000000   Number         0  n32g45x_dac.o ABSOLUTE
    Libraries\\N32_Std_Driver\\n32g45x_std_periph_driver\\src\\n32g45x_dbg.c 0x00000000   Number         0  n32g45x_dbg.o ABSOLUTE
    Libraries\\N32_Std_Driver\\n32g45x_std_periph_driver\\src\\n32g45x_dma.c 0x00000000   Number         0  n32g45x_dma.o ABSOLUTE
    Libraries\\N32_Std_Driver\\n32g45x_std_periph_driver\\src\\n32g45x_dvp.c 0x00000000   Number         0  n32g45x_dvp.o ABSOLUTE
    Libraries\\N32_Std_Driver\\n32g45x_std_periph_driver\\src\\n32g45x_eth.c 0x00000000   Number         0  n32g45x_eth.o ABSOLUTE
    Libraries\\N32_Std_Driver\\n32g45x_std_periph_driver\\src\\n32g45x_exti.c 0x00000000   Number         0  n32g45x_exti.o ABSOLUTE
    Libraries\\N32_Std_Driver\\n32g45x_std_periph_driver\\src\\n32g45x_flash.c 0x00000000   Number         0  n32g45x_flash.o ABSOLUTE
    Libraries\\N32_Std_Driver\\n32g45x_std_periph_driver\\src\\n32g45x_gpio.c 0x00000000   Number         0  n32g45x_gpio.o ABSOLUTE
    Libraries\\N32_Std_Driver\\n32g45x_std_periph_driver\\src\\n32g45x_i2c.c 0x00000000   Number         0  n32g45x_i2c.o ABSOLUTE
    Libraries\\N32_Std_Driver\\n32g45x_std_periph_driver\\src\\n32g45x_iwdg.c 0x00000000   Number         0  n32g45x_iwdg.o ABSOLUTE
    Libraries\\N32_Std_Driver\\n32g45x_std_periph_driver\\src\\n32g45x_opamp.c 0x00000000   Number         0  n32g45x_opamp.o ABSOLUTE
    Libraries\\N32_Std_Driver\\n32g45x_std_periph_driver\\src\\n32g45x_pwr.c 0x00000000   Number         0  n32g45x_pwr.o ABSOLUTE
    Libraries\\N32_Std_Driver\\n32g45x_std_periph_driver\\src\\n32g45x_qspi.c 0x00000000   Number         0  n32g45x_qspi.o ABSOLUTE
    Libraries\\N32_Std_Driver\\n32g45x_std_periph_driver\\src\\n32g45x_rcc.c 0x00000000   Number         0  n32g45x_rcc.o ABSOLUTE
    Libraries\\N32_Std_Driver\\n32g45x_std_periph_driver\\src\\n32g45x_rtc.c 0x00000000   Number         0  n32g45x_rtc.o ABSOLUTE
    Libraries\\N32_Std_Driver\\n32g45x_std_periph_driver\\src\\n32g45x_sdio.c 0x00000000   Number         0  n32g45x_sdio.o ABSOLUTE
    Libraries\\N32_Std_Driver\\n32g45x_std_periph_driver\\src\\n32g45x_spi.c 0x00000000   Number         0  n32g45x_spi.o ABSOLUTE
    Libraries\\N32_Std_Driver\\n32g45x_std_periph_driver\\src\\n32g45x_tim.c 0x00000000   Number         0  n32g45x_tim.o ABSOLUTE
    Libraries\\N32_Std_Driver\\n32g45x_std_periph_driver\\src\\n32g45x_tsc.c 0x00000000   Number         0  n32g45x_tsc.o ABSOLUTE
    Libraries\\N32_Std_Driver\\n32g45x_std_periph_driver\\src\\n32g45x_usart.c 0x00000000   Number         0  n32g45x_usart.o ABSOLUTE
    Libraries\\N32_Std_Driver\\n32g45x_std_periph_driver\\src\\n32g45x_wwdg.c 0x00000000   Number         0  n32g45x_wwdg.o ABSOLUTE
    Libraries\\N32_Std_Driver\\n32g45x_std_periph_driver\\src\\n32g45x_xfmc.c 0x00000000   Number         0  n32g45x_xfmc.o ABSOLUTE
    Libraries\\rt_drivers\\drv_adc.c         0x00000000   Number         0  drv_adc.o ABSOLUTE
    Libraries\\rt_drivers\\drv_clk.c         0x00000000   Number         0  drv_clk.o ABSOLUTE
    Libraries\\rt_drivers\\drv_common.c      0x00000000   Number         0  drv_common.o ABSOLUTE
    Libraries\\rt_drivers\\drv_gpio.c        0x00000000   Number         0  drv_gpio.o ABSOLUTE
    Libraries\\rt_drivers\\drv_soft_i2c.c    0x00000000   Number         0  drv_soft_i2c.o ABSOLUTE
    Libraries\\rt_drivers\\drv_usart.c       0x00000000   Number         0  drv_usart.o ABSOLUTE
    Libraries\rt_drivers\drv_adc.c           0x00000000   Number         0  drv_adc.o ABSOLUTE
    Libraries\rt_drivers\drv_clk.c           0x00000000   Number         0  drv_clk.o ABSOLUTE
    Libraries\rt_drivers\drv_common.c        0x00000000   Number         0  drv_common.o ABSOLUTE
    Libraries\rt_drivers\drv_gpio.c          0x00000000   Number         0  drv_gpio.o ABSOLUTE
    Libraries\rt_drivers\drv_soft_i2c.c      0x00000000   Number         0  drv_soft_i2c.o ABSOLUTE
    Libraries\rt_drivers\drv_usart.c         0x00000000   Number         0  drv_usart.o ABSOLUTE
    applications\\main.c                     0x00000000   Number         0  main.o ABSOLUTE
    applications\\mq3.c                      0x00000000   Number         0  mq3.o ABSOLUTE
    applications\\oled.c                     0x00000000   Number         0  oled.o ABSOLUTE
    applications\\sys.c                      0x00000000   Number         0  sys.o ABSOLUTE
    applications\\uart.c                     0x00000000   Number         0  uart.o ABSOLUTE
    applications\\wifi.c                     0x00000000   Number         0  wifi.o ABSOLUTE
    applications\buzzer.c                    0x00000000   Number         0  buzzer.o ABSOLUTE
    applications\main.c                      0x00000000   Number         0  main.o ABSOLUTE
    applications\mq3.c                       0x00000000   Number         0  mq3.o ABSOLUTE
    applications\oled.c                      0x00000000   Number         0  oled.o ABSOLUTE
    applications\sys.c                       0x00000000   Number         0  sys.o ABSOLUTE
    applications\uart.c                      0x00000000   Number         0  uart.o ABSOLUTE
    applications\wifi.c                      0x00000000   Number         0  wifi.o ABSOLUTE
    board\\board.c                           0x00000000   Number         0  board.o ABSOLUTE
    board\\msp\\n32_msp.c                    0x00000000   Number         0  n32_msp.o ABSOLUTE
    board\board.c                            0x00000000   Number         0  board.o ABSOLUTE
    board\msp\n32_msp.c                      0x00000000   Number         0  n32_msp.o ABSOLUTE
    dc.s                                     0x00000000   Number         0  dc.o ABSOLUTE
    rt-thread\components\drivers\i2c\i2c-bit-ops.c 0x00000000   Number         0  i2c-bit-ops.o ABSOLUTE
    rt-thread\components\drivers\i2c\i2c_core.c 0x00000000   Number         0  i2c_core.o ABSOLUTE
    rt-thread\components\drivers\i2c\i2c_dev.c 0x00000000   Number         0  i2c_dev.o ABSOLUTE
    rt-thread\components\drivers\ipc\completion.c 0x00000000   Number         0  completion.o ABSOLUTE
    rt-thread\components\drivers\ipc\dataqueue.c 0x00000000   Number         0  dataqueue.o ABSOLUTE
    rt-thread\components\drivers\ipc\pipe.c  0x00000000   Number         0  pipe.o ABSOLUTE
    rt-thread\components\drivers\ipc\ringblk_buf.c 0x00000000   Number         0  ringblk_buf.o ABSOLUTE
    rt-thread\components\drivers\ipc\ringbuffer.c 0x00000000   Number         0  ringbuffer.o ABSOLUTE
    rt-thread\components\drivers\ipc\waitqueue.c 0x00000000   Number         0  waitqueue.o ABSOLUTE
    rt-thread\components\drivers\ipc\workqueue.c 0x00000000   Number         0  workqueue.o ABSOLUTE
    rt-thread\components\drivers\misc\adc.c  0x00000000   Number         0  adc.o ABSOLUTE
    rt-thread\components\drivers\misc\pin.c  0x00000000   Number         0  pin.o ABSOLUTE
    rt-thread\components\drivers\serial\serial.c 0x00000000   Number         0  serial.o ABSOLUTE
    rt-thread\components\finsh\cmd.c         0x00000000   Number         0  cmd.o ABSOLUTE
    rt-thread\components\finsh\msh.c         0x00000000   Number         0  msh.o ABSOLUTE
    rt-thread\components\finsh\shell.c       0x00000000   Number         0  shell.o ABSOLUTE
    rt-thread\components\libc\compilers\armlibc\syscall_mem.c 0x00000000   Number         0  syscall_mem.o ABSOLUTE
    rt-thread\components\libc\compilers\armlibc\syscalls.c 0x00000000   Number         0  syscalls.o ABSOLUTE
    rt-thread\components\libc\compilers\common\stdlib.c 0x00000000   Number         0  stdlib.o ABSOLUTE
    rt-thread\components\libc\compilers\common\time.c 0x00000000   Number         0  time.o ABSOLUTE
    rt-thread\libcpu\arm\common\backtrace.c  0x00000000   Number         0  backtrace.o ABSOLUTE
    rt-thread\libcpu\arm\common\div0.c       0x00000000   Number         0  div0.o ABSOLUTE
    rt-thread\libcpu\arm\common\showmem.c    0x00000000   Number         0  showmem.o ABSOLUTE
    rt-thread\libcpu\arm\cortex-m4\context_rvds.S 0x00000000   Number         0  context_rvds.o ABSOLUTE
    rt-thread\libcpu\arm\cortex-m4\cpuport.c 0x00000000   Number         0  cpuport.o ABSOLUTE
    rt-thread\src\clock.c                    0x00000000   Number         0  clock.o ABSOLUTE
    rt-thread\src\components.c               0x00000000   Number         0  components.o ABSOLUTE
    rt-thread\src\device.c                   0x00000000   Number         0  device.o ABSOLUTE
    rt-thread\src\idle.c                     0x00000000   Number         0  idle.o ABSOLUTE
    rt-thread\src\ipc.c                      0x00000000   Number         0  ipc.o ABSOLUTE
    rt-thread\src\irq.c                      0x00000000   Number         0  irq.o ABSOLUTE
    rt-thread\src\kservice.c                 0x00000000   Number         0  kservice.o ABSOLUTE
    rt-thread\src\mem.c                      0x00000000   Number         0  mem.o ABSOLUTE
    rt-thread\src\mempool.c                  0x00000000   Number         0  mempool.o ABSOLUTE
    rt-thread\src\object.c                   0x00000000   Number         0  object.o ABSOLUTE
    rt-thread\src\scheduler.c                0x00000000   Number         0  scheduler.o ABSOLUTE
    rt-thread\src\thread.c                   0x00000000   Number         0  thread.o ABSOLUTE
    rt-thread\src\timer.c                    0x00000000   Number         0  timer.o ABSOLUTE
    RESET                                    0x08000000   Section      408  startup_n32g45x.o(RESET)
    !!!main                                  0x08000198   Section        8  __main.o(!!!main)
    !!!scatter                               0x080001a0   Section       52  __scatter.o(!!!scatter)
    !!dczerorl2                              0x080001d4   Section       90  __dczerorl2.o(!!dczerorl2)
    !!handler_zi                             0x08000230   Section       28  __scatter_zi.o(!!handler_zi)
    .ARM.Collect$$_printf_percent$$00000000  0x0800024c   Section        0  _printf_percent.o(.ARM.Collect$$_printf_percent$$00000000)
    .ARM.Collect$$_printf_percent$$00000009  0x0800024c   Section        6  _printf_d.o(.ARM.Collect$$_printf_percent$$00000009)
    .ARM.Collect$$_printf_percent$$00000017  0x08000252   Section        4  _printf_percent_end.o(.ARM.Collect$$_printf_percent$$00000017)
    .ARM.Collect$$libinit$$00000000          0x08000256   Section        2  libinit.o(.ARM.Collect$$libinit$$00000000)
    .ARM.Collect$$libinit$$00000001          0x08000258   Section        4  libinit2.o(.ARM.Collect$$libinit$$00000001)
    .ARM.Collect$$libinit$$00000004          0x0800025c   Section        0  libinit2.o(.ARM.Collect$$libinit$$00000004)
    .ARM.Collect$$libinit$$0000000A          0x0800025c   Section        0  libinit2.o(.ARM.Collect$$libinit$$0000000A)
    .ARM.Collect$$libinit$$0000000C          0x0800025c   Section        0  libinit2.o(.ARM.Collect$$libinit$$0000000C)
    .ARM.Collect$$libinit$$0000000E          0x0800025c   Section        0  libinit2.o(.ARM.Collect$$libinit$$0000000E)
    .ARM.Collect$$libinit$$0000000F          0x0800025c   Section        6  libinit2.o(.ARM.Collect$$libinit$$0000000F)
    .ARM.Collect$$libinit$$00000011          0x08000262   Section        0  libinit2.o(.ARM.Collect$$libinit$$00000011)
    .ARM.Collect$$libinit$$00000012          0x08000262   Section       12  libinit2.o(.ARM.Collect$$libinit$$00000012)
    .ARM.Collect$$libinit$$00000013          0x0800026e   Section        0  libinit2.o(.ARM.Collect$$libinit$$00000013)
    .ARM.Collect$$libinit$$00000015          0x0800026e   Section        0  libinit2.o(.ARM.Collect$$libinit$$00000015)
    .ARM.Collect$$libinit$$00000017          0x0800026e   Section        0  libinit2.o(.ARM.Collect$$libinit$$00000017)
    .ARM.Collect$$libinit$$00000019          0x0800026e   Section        0  libinit2.o(.ARM.Collect$$libinit$$00000019)
    .ARM.Collect$$libinit$$0000001B          0x0800026e   Section        0  libinit2.o(.ARM.Collect$$libinit$$0000001B)
    .ARM.Collect$$libinit$$0000001D          0x0800026e   Section        0  libinit2.o(.ARM.Collect$$libinit$$0000001D)
    .ARM.Collect$$libinit$$0000001F          0x0800026e   Section        0  libinit2.o(.ARM.Collect$$libinit$$0000001F)
    .ARM.Collect$$libinit$$00000021          0x0800026e   Section        0  libinit2.o(.ARM.Collect$$libinit$$00000021)
    .ARM.Collect$$libinit$$00000023          0x0800026e   Section        0  libinit2.o(.ARM.Collect$$libinit$$00000023)
    .ARM.Collect$$libinit$$00000025          0x0800026e   Section        0  libinit2.o(.ARM.Collect$$libinit$$00000025)
    .ARM.Collect$$libinit$$0000002C          0x0800026e   Section        0  libinit2.o(.ARM.Collect$$libinit$$0000002C)
    .ARM.Collect$$libinit$$0000002E          0x0800026e   Section        0  libinit2.o(.ARM.Collect$$libinit$$0000002E)
    .ARM.Collect$$libinit$$00000030          0x0800026e   Section        0  libinit2.o(.ARM.Collect$$libinit$$00000030)
    .ARM.Collect$$libinit$$00000032          0x0800026e   Section        0  libinit2.o(.ARM.Collect$$libinit$$00000032)
    .ARM.Collect$$libinit$$00000033          0x0800026e   Section        2  libinit2.o(.ARM.Collect$$libinit$$00000033)
    .ARM.Collect$$libshutdown$$00000000      0x08000270   Section        2  libshutdown.o(.ARM.Collect$$libshutdown$$00000000)
    .ARM.Collect$$libshutdown$$00000002      0x08000272   Section        0  libshutdown2.o(.ARM.Collect$$libshutdown$$00000002)
    .ARM.Collect$$libshutdown$$00000004      0x08000272   Section        0  libshutdown2.o(.ARM.Collect$$libshutdown$$00000004)
    .ARM.Collect$$libshutdown$$00000006      0x08000272   Section        0  libshutdown2.o(.ARM.Collect$$libshutdown$$00000006)
    .ARM.Collect$$libshutdown$$00000009      0x08000272   Section        0  libshutdown2.o(.ARM.Collect$$libshutdown$$00000009)
    .ARM.Collect$$libshutdown$$0000000C      0x08000272   Section        0  libshutdown2.o(.ARM.Collect$$libshutdown$$0000000C)
    .ARM.Collect$$libshutdown$$0000000E      0x08000272   Section        0  libshutdown2.o(.ARM.Collect$$libshutdown$$0000000E)
    .ARM.Collect$$libshutdown$$00000011      0x08000272   Section        0  libshutdown2.o(.ARM.Collect$$libshutdown$$00000011)
    .ARM.Collect$$libshutdown$$00000012      0x08000272   Section        2  libshutdown2.o(.ARM.Collect$$libshutdown$$00000012)
    .ARM.Collect$$rtentry$$00000000          0x08000274   Section        0  __rtentry.o(.ARM.Collect$$rtentry$$00000000)
    .ARM.Collect$$rtentry$$00000002          0x08000274   Section        0  __rtentry2.o(.ARM.Collect$$rtentry$$00000002)
    .ARM.Collect$$rtentry$$00000004          0x08000274   Section        6  __rtentry4.o(.ARM.Collect$$rtentry$$00000004)
    .ARM.Collect$$rtentry$$00000009          0x0800027a   Section        0  __rtentry2.o(.ARM.Collect$$rtentry$$00000009)
    .ARM.Collect$$rtentry$$0000000A          0x0800027a   Section        4  __rtentry2.o(.ARM.Collect$$rtentry$$0000000A)
    .ARM.Collect$$rtentry$$0000000C          0x0800027e   Section        0  __rtentry2.o(.ARM.Collect$$rtentry$$0000000C)
    .ARM.Collect$$rtentry$$0000000D          0x0800027e   Section        8  __rtentry2.o(.ARM.Collect$$rtentry$$0000000D)
    .ARM.Collect$$rtexit$$00000000           0x08000286   Section        2  rtexit.o(.ARM.Collect$$rtexit$$00000000)
    .ARM.Collect$$rtexit$$00000002           0x08000288   Section        0  rtexit2.o(.ARM.Collect$$rtexit$$00000002)
    .ARM.Collect$$rtexit$$00000003           0x08000288   Section        4  rtexit2.o(.ARM.Collect$$rtexit$$00000003)
    .ARM.Collect$$rtexit$$00000004           0x0800028c   Section        6  rtexit2.o(.ARM.Collect$$rtexit$$00000004)
    .text                                    0x08000292   Section        0  main.o(.text)
    .text                                    0x080002b4   Section        0  oled.o(.text)
    oled_thread_entry                        0x08000a75   Thumb Code    86  oled.o(.text)
    led_test                                 0x08000cf3   Thumb Code    32  oled.o(.text)
    .text                                    0x08000d38   Section        0  mq3.o(.text)
    mq3_mb_send                              0x08000d39   Thumb Code    16  mq3.o(.text)
    mq3_thread_entry                         0x08000d5d   Thumb Code    86  mq3.o(.text)
    .text                                    0x08000ea4   Section        0  buzzer.o(.text)
    .text                                    0x08000ebc   Section        0  wifi.o(.text)
    wifi_thread_entry                        0x08000f67   Thumb Code    60  wifi.o(.text)
    .text                                    0x080010e8   Section        0  uart.o(.text)
    uart_input                               0x080010e9   Thumb Code    16  uart.o(.text)
    serial2_thread_entry                     0x080010f9   Thumb Code    56  uart.o(.text)
    .text                                    0x08001220   Section        0  syscalls.o(.text)
    .text                                    0x08001440   Section        0  stdlib.o(.text)
    .text                                    0x080014c8   Section      308  context_rvds.o(.text)
    $v0                                      0x080014c8   Number         0  context_rvds.o(.text)
    .text                                    0x080015fc   Section        0  cpuport.o(.text)
    usage_fault_track                        0x0800164d   Thumb Code   122  cpuport.o(.text)
    bus_fault_track                          0x080016c7   Thumb Code   144  cpuport.o(.text)
    mem_manage_fault_track                   0x08001757   Thumb Code   126  cpuport.o(.text)
    hard_fault_track                         0x080017d5   Thumb Code    86  cpuport.o(.text)
    .text                                    0x08001c08   Section        0  i2c_core.o(.text)
    .text                                    0x08001e30   Section        0  i2c_dev.o(.text)
    i2c_bus_device_read                      0x08001e31   Thumb Code    74  i2c_dev.o(.text)
    i2c_bus_device_write                     0x08001e7b   Thumb Code    74  i2c_dev.o(.text)
    i2c_bus_device_control                   0x08001ec5   Thumb Code   138  i2c_dev.o(.text)
    .text                                    0x08001fcc   Section        0  i2c-bit-ops.o(.text)
    SCL_H                                    0x08001fcd   Thumb Code    76  i2c-bit-ops.o(.text)
    i2c_start                                0x08002019   Thumb Code    28  i2c-bit-ops.o(.text)
    i2c_restart                              0x08002035   Thumb Code    48  i2c-bit-ops.o(.text)
    i2c_stop                                 0x08002065   Thumb Code    46  i2c-bit-ops.o(.text)
    i2c_writeb                               0x08002093   Thumb Code    90  i2c-bit-ops.o(.text)
    i2c_readb                                0x080020ed   Thumb Code    88  i2c-bit-ops.o(.text)
    i2c_send_bytes                           0x08002145   Thumb Code   102  i2c-bit-ops.o(.text)
    i2c_send_ack_or_nack                     0x080021ab   Thumb Code    74  i2c-bit-ops.o(.text)
    i2c_recv_bytes                           0x080021f5   Thumb Code    86  i2c-bit-ops.o(.text)
    i2c_send_address                         0x0800224b   Thumb Code    72  i2c-bit-ops.o(.text)
    i2c_bit_send_address                     0x08002293   Thumb Code   258  i2c-bit-ops.o(.text)
    i2c_bit_xfer                             0x08002395   Thumb Code   172  i2c-bit-ops.o(.text)
    i2c_delay                                0x08002455   Thumb Code    16  i2c-bit-ops.o(.text)
    i2c_delay2                               0x08002465   Thumb Code    12  i2c-bit-ops.o(.text)
    i2c_waitack                              0x08002471   Thumb Code    84  i2c-bit-ops.o(.text)
    .text                                    0x0800258c   Section        0  completion.o(.text)
    rt_list_isempty                          0x080026c9   Thumb Code    16  completion.o(.text)
    .text                                    0x08002758   Section        0  dataqueue.o(.text)
    rt_list_insert_before                    0x08002759   Thumb Code    14  dataqueue.o(.text)
    rt_list_init                             0x08002d67   Thumb Code     6  dataqueue.o(.text)
    rt_list_isempty                          0x08002d6d   Thumb Code    16  dataqueue.o(.text)
    .text                                    0x08002d8c   Section        0  adc.o(.text)
    _adc_read                                0x08002d8d   Thumb Code    66  adc.o(.text)
    _adc_control                             0x08002dcf   Thumb Code    70  adc.o(.text)
    adc                                      0x08002eed   Thumb Code   372  adc.o(.text)
    .text                                    0x08003278   Section        0  pin.o(.text)
    _pin_read                                0x08003279   Thumb Code    62  pin.o(.text)
    _pin_write                               0x080032b7   Thumb Code    62  pin.o(.text)
    _pin_control                             0x080032f5   Thumb Code    52  pin.o(.text)
    .text                                    0x08003520   Section        0  serial.o(.text)
    _serial_int_rx                           0x08003521   Thumb Code   140  serial.o(.text)
    _serial_check_buffer_size                0x080035ad   Thumb Code    38  serial.o(.text)
    _serial_fifo_calc_recved_len             0x080035d3   Thumb Code    76  serial.o(.text)
    rt_dma_calc_recved_len                   0x0800361f   Thumb Code    12  serial.o(.text)
    rt_dma_recv_update_get_index             0x0800362b   Thumb Code    92  serial.o(.text)
    rt_dma_recv_update_put_index             0x08003687   Thumb Code   144  serial.o(.text)
    _serial_dma_rx                           0x08003717   Thumb Code   276  serial.o(.text)
    rt_serial_init                           0x0800382b   Thumb Code    52  serial.o(.text)
    rt_serial_open                           0x0800385f   Thumb Code   842  serial.o(.text)
    rt_serial_close                          0x08003ba9   Thumb Code   334  serial.o(.text)
    rt_serial_read                           0x08003cf7   Thumb Code    90  serial.o(.text)
    rt_serial_write                          0x08003d51   Thumb Code    90  serial.o(.text)
    rt_serial_control                        0x08003dab   Thumb Code   206  serial.o(.text)
    _serial_poll_rx                          0x08004059   Thumb Code    76  serial.o(.text)
    _serial_poll_tx                          0x080040a5   Thumb Code    74  serial.o(.text)
    _serial_int_tx                           0x080040ef   Thumb Code   128  serial.o(.text)
    _serial_dma_tx                           0x0800416f   Thumb Code    92  serial.o(.text)
    .text                                    0x08004244   Section        0  n32_msp.o(.text)
    uart_test_rw                             0x08004389   Thumb Code   138  n32_msp.o(.text)
    uart_test                                0x08004413   Thumb Code    14  n32_msp.o(.text)
    adc_vol_sample                           0x08004421   Thumb Code    98  n32_msp.o(.text)
    .text                                    0x08004540   Section       64  startup_n32g45x.o(.text)
    $v0                                      0x08004540   Number         0  startup_n32g45x.o(.text)
    .text                                    0x08004580   Section        0  board.o(.text)
    __NVIC_SetPriority                       0x08004581   Thumb Code    32  board.o(.text)
    .text                                    0x08004644   Section        0  drv_gpio.o(.text)
    bit2bitno                                0x0800476d   Thumb Code    30  drv_gpio.o(.text)
    pin_irq_hdr                              0x08004a65   Thumb Code    60  drv_gpio.o(.text)
    .text                                    0x08004bcc   Section        0  drv_soft_i2c.o(.text)
    n32_i2c_gpio_init                        0x08004bcd   Thumb Code    40  drv_soft_i2c.o(.text)
    n32_set_sda                              0x08004bf5   Thumb Code    30  drv_soft_i2c.o(.text)
    n32_set_scl                              0x08004c13   Thumb Code    30  drv_soft_i2c.o(.text)
    n32_get_sda                              0x08004c31   Thumb Code    14  drv_soft_i2c.o(.text)
    n32_get_scl                              0x08004c3f   Thumb Code    14  drv_soft_i2c.o(.text)
    n32_udelay                               0x08004c4d   Thumb Code    72  drv_soft_i2c.o(.text)
    n32_i2c_bus_unlock                       0x08004c95   Thumb Code    70  drv_soft_i2c.o(.text)
    .text                                    0x08004da0   Section        0  drv_adc.o(.text)
    n32_adc_get_channel                      0x08004da1   Thumb Code   112  drv_adc.o(.text)
    n32_adc_enabled                          0x08004e11   Thumb Code   168  drv_adc.o(.text)
    n32_get_adc_value                        0x08004eb9   Thumb Code   102  drv_adc.o(.text)
    rt_hw_adc_init                           0x08004f1f   Thumb Code   150  drv_adc.o(.text)
    .text                                    0x08005040   Section        0  drv_usart.o(.text)
    n32_uart_configure                       0x08005041   Thumb Code   230  drv_usart.o(.text)
    DMA_Configuration                        0x08005127   Thumb Code   176  drv_usart.o(.text)
    n32_uart_control                         0x080051d7   Thumb Code   176  drv_usart.o(.text)
    n32_uart_putc                            0x08005287   Thumb Code    96  drv_usart.o(.text)
    n32_uart_getc                            0x080052e7   Thumb Code    42  drv_usart.o(.text)
    dma_uart_rx_idle_isr                     0x08005311   Thumb Code    68  drv_usart.o(.text)
    dma_rx_done_isr                          0x08005355   Thumb Code    56  drv_usart.o(.text)
    uart_isr                                 0x0800538d   Thumb Code   256  drv_usart.o(.text)
    NVIC_Configuration                       0x080054d5   Thumb Code    34  drv_usart.o(.text)
    .text                                    0x08005584   Section        0  drv_common.o(.text)
    reboot                                   0x08005585   Thumb Code    12  drv_common.o(.text)
    .text                                    0x080055d8   Section        0  shell.o(.text)
    finsh_rx_ind                             0x080056f1   Thumb Code    34  shell.o(.text)
    shell_auto_complete                      0x0800581b   Thumb Code    34  shell.o(.text)
    shell_handle_history                     0x0800583d   Thumb Code    32  shell.o(.text)
    shell_push_history                       0x0800585d   Thumb Code   220  shell.o(.text)
    .text                                    0x08005f60   Section        0  msh.o(.text)
    msh_split                                0x08005fd3   Thumb Code   202  msh.o(.text)
    msh_get_cmd                              0x0800609d   Thumb Code    56  msh.o(.text)
    _msh_exec_cmd                            0x080060d5   Thumb Code   138  msh.o(.text)
    str_common                               0x080061b3   Thumb Code    32  msh.o(.text)
    .text                                    0x080062fc   Section        0  cmd.o(.text)
    rt_list_len                              0x080062fd   Thumb Code    20  cmd.o(.text)
    clear                                    0x0800631d   Thumb Code    12  cmd.o(.text)
    list_find_init                           0x08006333   Thumb Code    42  cmd.o(.text)
    list_get_next                            0x0800635d   Thumb Code   136  cmd.o(.text)
    show_wait_queue                          0x0800650b   Thumb Code    42  cmd.o(.text)
    rt_list_isempty                          0x0800703f   Thumb Code    16  cmd.o(.text)
    object_split                             0x0800704f   Thumb Code    22  cmd.o(.text)
    .text                                    0x08007104   Section        0  timer.o(.text)
    rt_list_insert_after                     0x08007105   Thumb Code    14  timer.o(.text)
    rt_list_remove                           0x08007113   Thumb Code    18  timer.o(.text)
    _timer_init                              0x08007131   Thumb Code    66  timer.o(.text)
    _timer_list_next_timeout                 0x08007173   Thumb Code    44  timer.o(.text)
    _timer_remove                            0x0800719f   Thumb Code    28  timer.o(.text)
    _timer_thread_entry                      0x0800785f   Thumb Code    62  timer.o(.text)
    rt_list_init                             0x080078ef   Thumb Code     6  timer.o(.text)
    rt_list_isempty                          0x080078f5   Thumb Code    16  timer.o(.text)
    .text                                    0x0800792c   Section        0  clock.o(.text)
    .text                                    0x080079e0   Section        0  scheduler.o(.text)
    _rt_scheduler_stack_check                0x080079ed   Thumb Code    86  scheduler.o(.text)
    _scheduler_get_highest_priority_thread   0x08007a43   Thumb Code    30  scheduler.o(.text)
    .text                                    0x08007db4   Section        0  components.o(.text)
    rti_start                                0x08007db5   Thumb Code     4  components.o(.text)
    rti_board_start                          0x08007db9   Thumb Code     4  components.o(.text)
    rti_board_end                            0x08007dbd   Thumb Code     4  components.o(.text)
    rti_end                                  0x08007dc1   Thumb Code     4  components.o(.text)
    .text                                    0x08007e88   Section        0  object.o(.text)
    rt_list_insert_after                     0x08007e89   Thumb Code    14  object.o(.text)
    rt_list_remove                           0x08007e97   Thumb Code    18  object.o(.text)
    .text                                    0x080082bc   Section        0  irq.o(.text)
    .text                                    0x08008348   Section        0  device.o(.text)
    .text                                    0x08008804   Section        0  ipc.o(.text)
    rt_list_insert_before                    0x08008805   Thumb Code    14  ipc.o(.text)
    _ipc_list_suspend                        0x08008813   Thumb Code   120  ipc.o(.text)
    _ipc_list_resume_all                     0x0800888b   Thumb Code    50  ipc.o(.text)
    rt_list_init                             0x0800a7dd   Thumb Code     6  ipc.o(.text)
    rt_list_isempty                          0x0800a7e3   Thumb Code    16  ipc.o(.text)
    _ipc_object_init                         0x0800a7f3   Thumb Code    16  ipc.o(.text)
    _ipc_list_resume                         0x0800a803   Thumb Code    24  ipc.o(.text)
    .text                                    0x0800a830   Section        0  kservice.o(.text)
    print_number                             0x0800aae5   Thumb Code   414  kservice.o(.text)
    skip_atoi                                0x0800ac83   Thumb Code    38  kservice.o(.text)
    _heap_unlock                             0x0800b05d   Thumb Code    32  kservice.o(.text)
    _heap_lock                               0x0800b4a7   Thumb Code    24  kservice.o(.text)
    .text                                    0x0800b4d4   Section        0  mem.o(.text)
    plug_holes                               0x0800b4d5   Thumb Code   142  mem.o(.text)
    .text                                    0x0800bce4   Section        0  idle.o(.text)
    rt_defunct_execute                       0x0800bdad   Thumb Code    60  idle.o(.text)
    rt_thread_idle_entry                     0x0800bde9   Thumb Code    30  idle.o(.text)
    .text                                    0x0800be78   Section        0  thread.o(.text)
    rt_list_remove                           0x0800be79   Thumb Code    18  thread.o(.text)
    _thread_exit                             0x0800bea3   Thumb Code    52  thread.o(.text)
    _thread_timeout                          0x0800bed7   Thumb Code    98  thread.o(.text)
    _thread_init                             0x0800bf39   Thumb Code   154  thread.o(.text)
    .text                                    0x0800c6b8   Section        0  n32g45x_dma.o(.text)
    .text                                    0x0800c948   Section        0  n32g45x_gpio.o(.text)
    .text                                    0x0800ce7c   Section        0  n32g45x_usart.o(.text)
    .text                                    0x0800d268   Section        0  n32g45x_exti.o(.text)
    .text                                    0x0800d39c   Section        0  n32g45x_adc.o(.text)
    .text                                    0x0800d964   Section        0  n32g45x_rcc.o(.text)
    .text                                    0x0800de74   Section        0  misc.o(.text)
    .text                                    0x0800df3c   Section        0  system_n32g45x.o(.text)
    SetSysClock                              0x0800df3d   Thumb Code   200  system_n32g45x.o(.text)
    .text                                    0x0800e170   Section        2  use_no_semi.o(.text)
    .text                                    0x0800e174   Section        0  noretval__2sprintf.o(.text)
    .text                                    0x0800e19c   Section        0  _printf_pad.o(.text)
    .text                                    0x0800e1ec   Section        0  _printf_dec.o(.text)
    .text                                    0x0800e264   Section        0  __printf_flags_wp.o(.text)
    .text                                    0x0800e39c   Section        0  atoi.o(.text)
    .text                                    0x0800e3b6   Section        0  strstr.o(.text)
    .text                                    0x0800e3da   Section        0  memcmp.o(.text)
    .text                                    0x0800e432   Section        0  strcpy.o(.text)
    .text                                    0x0800e47a   Section        0  strlen.o(.text)
    .text                                    0x0800e4b8   Section        0  strncmp.o(.text)
    .text                                    0x0800e54e   Section        0  strcat.o(.text)
    .text                                    0x0800e566   Section      100  rt_memcpy_w.o(.text)
    .text                                    0x0800e5ca   Section       78  rt_memclr_w.o(.text)
    .text                                    0x0800e618   Section       86  strncpy.o(.text)
    .text                                    0x0800e670   Section      128  strcmpv7m.o(.text)
    .text                                    0x0800e6f0   Section        0  heapauxi.o(.text)
    .text                                    0x0800e6f8   Section        8  rt_errno_addr_intlibspace.o(.text)
    .text                                    0x0800e700   Section        0  _printf_intcommon.o(.text)
    .text                                    0x0800e7b4   Section        0  _printf_char_common.o(.text)
    _printf_input_char                       0x0800e7b5   Thumb Code    10  _printf_char_common.o(.text)
    .text                                    0x0800e7e4   Section        0  _sputc.o(.text)
    .text                                    0x0800e7ee   Section        0  strtol.o(.text)
    .text                                    0x0800e85e   Section       68  rt_memclr.o(.text)
    .text                                    0x0800e8a4   Section        8  libspace.o(.text)
    .text                                    0x0800e8ac   Section       16  rt_ctype_table.o(.text)
    .text                                    0x0800e8bc   Section        0  _strtoul.o(.text)
    .text                                    0x0800e95a   Section       74  sys_stackheap_outer.o(.text)
    .text                                    0x0800e9a4   Section        8  rt_locale_intlibspace.o(.text)
    .text                                    0x0800e9ac   Section        0  _chval.o(.text)
    .text                                    0x0800e9c8   Section        0  exit.o(.text)
    i._is_digit                              0x0800e9da   Section        0  __printf_wp.o(i._is_digit)
    locale$$code                             0x0800e9e8   Section       44  lc_ctype_c.o(locale$$code)
    x$fpl$dcmpinf                            0x0800ea14   Section       24  dcmpi.o(x$fpl$dcmpinf)
    $v0                                      0x0800ea14   Number         0  dcmpi.o(x$fpl$dcmpinf)
    x$fpl$dfltu                              0x0800ea2c   Section       38  dflt_clz.o(x$fpl$dfltu)
    $v0                                      0x0800ea2c   Number         0  dflt_clz.o(x$fpl$dfltu)
    x$fpl$dleqf                              0x0800ea54   Section      120  dleqf.o(x$fpl$dleqf)
    $v0                                      0x0800ea54   Number         0  dleqf.o(x$fpl$dleqf)
    x$fpl$dnaninf                            0x0800eacc   Section      156  dnaninf.o(x$fpl$dnaninf)
    $v0                                      0x0800eacc   Number         0  dnaninf.o(x$fpl$dnaninf)
    x$fpl$drleqf                             0x0800eb68   Section      108  drleqf.o(x$fpl$drleqf)
    $v0                                      0x0800eb68   Number         0  drleqf.o(x$fpl$drleqf)
    x$fpl$fpinit                             0x0800ebd4   Section       10  fpinit.o(x$fpl$fpinit)
    $v0                                      0x0800ebd4   Number         0  fpinit.o(x$fpl$fpinit)
    .constdata                               0x0800ebde   Section     7472  oled.o(.constdata)
    x$fpl$usenofp                            0x0800ebde   Section        0  usenofp.o(x$fpl$usenofp)
    .constdata                               0x0801090e   Section       11  mq3.o(.constdata)
    __FUNCTION__                             0x0801090e   Data          11  mq3.o(.constdata)
    .constdata                               0x08010919   Section       89  syscalls.o(.constdata)
    __func__                                 0x0801092d   Data          10  syscalls.o(.constdata)
    __func__                                 0x08010937   Data          11  syscalls.o(.constdata)
    __func__                                 0x08010942   Data          10  syscalls.o(.constdata)
    __func__                                 0x0801094c   Data          11  syscalls.o(.constdata)
    __func__                                 0x08010957   Data          10  syscalls.o(.constdata)
    __func__                                 0x08010961   Data          10  syscalls.o(.constdata)
    __func__                                 0x0801096b   Data           7  syscalls.o(.constdata)
    .constdata                               0x08010972   Section       19  cpuport.o(.constdata)
    __FUNCTION__                             0x08010972   Data          19  cpuport.o(.constdata)
    .constdata                               0x08010985   Section       19  i2c_core.o(.constdata)
    __FUNCTION__                             0x08010985   Data          19  i2c_core.o(.constdata)
    .constdata                               0x08010998   Section       94  i2c_dev.o(.constdata)
    __FUNCTION__                             0x08010998   Data          20  i2c_dev.o(.constdata)
    __FUNCTION__                             0x080109ac   Data          21  i2c_dev.o(.constdata)
    __FUNCTION__                             0x080109c1   Data          23  i2c_dev.o(.constdata)
    __FUNCTION__                             0x080109d8   Data          30  i2c_dev.o(.constdata)
    .constdata                               0x080109f8   Section       12  i2c-bit-ops.o(.constdata)
    i2c_bit_bus_ops                          0x080109f8   Data          12  i2c-bit-ops.o(.constdata)
    .constdata                               0x08010a04   Section       57  completion.o(.constdata)
    __FUNCTION__                             0x08010a04   Data          19  completion.o(.constdata)
    __FUNCTION__                             0x08010a17   Data          19  completion.o(.constdata)
    __FUNCTION__                             0x08010a2a   Data          19  completion.o(.constdata)
    .constdata                               0x08010a3d   Section      134  dataqueue.o(.constdata)
    __FUNCTION__                             0x08010a3d   Data          19  dataqueue.o(.constdata)
    __FUNCTION__                             0x08010a50   Data          19  dataqueue.o(.constdata)
    __FUNCTION__                             0x08010a63   Data          18  dataqueue.o(.constdata)
    __FUNCTION__                             0x08010a75   Data          19  dataqueue.o(.constdata)
    __FUNCTION__                             0x08010a88   Data          20  dataqueue.o(.constdata)
    __FUNCTION__                             0x08010a9c   Data          21  dataqueue.o(.constdata)
    __FUNCTION__                             0x08010ab1   Data          18  dataqueue.o(.constdata)
    .constdata                               0x08010ac3   Section       60  adc.o(.constdata)
    __FUNCTION__                             0x08010ac3   Data          19  adc.o(.constdata)
    __FUNCTION__                             0x08010ad6   Data          12  adc.o(.constdata)
    __FUNCTION__                             0x08010ae2   Data          14  adc.o(.constdata)
    __FUNCTION__                             0x08010af0   Data          15  adc.o(.constdata)
    .constdata                               0x08010aff   Section      136  pin.o(.constdata)
    __FUNCTION__                             0x08010aff   Data          10  pin.o(.constdata)
    __FUNCTION__                             0x08010b09   Data          11  pin.o(.constdata)
    __FUNCTION__                             0x08010b14   Data          13  pin.o(.constdata)
    __FUNCTION__                             0x08010b21   Data          18  pin.o(.constdata)
    __FUNCTION__                             0x08010b33   Data          18  pin.o(.constdata)
    __FUNCTION__                             0x08010b45   Data          18  pin.o(.constdata)
    __FUNCTION__                             0x08010b57   Data          12  pin.o(.constdata)
    __FUNCTION__                             0x08010b63   Data          13  pin.o(.constdata)
    __FUNCTION__                             0x08010b70   Data          12  pin.o(.constdata)
    __FUNCTION__                             0x08010b7c   Data          11  pin.o(.constdata)
    .constdata                               0x08010b87   Section      298  serial.o(.constdata)
    __FUNCTION__                             0x08010b87   Data          16  serial.o(.constdata)
    __FUNCTION__                             0x08010b97   Data          16  serial.o(.constdata)
    __FUNCTION__                             0x08010ba7   Data          15  serial.o(.constdata)
    __FUNCTION__                             0x08010bb6   Data          15  serial.o(.constdata)
    __FUNCTION__                             0x08010bc5   Data          29  serial.o(.constdata)
    __FUNCTION__                             0x08010be2   Data          29  serial.o(.constdata)
    __FUNCTION__                             0x08010bff   Data          29  serial.o(.constdata)
    __FUNCTION__                             0x08010c1c   Data          15  serial.o(.constdata)
    __FUNCTION__                             0x08010c2b   Data          15  serial.o(.constdata)
    __FUNCTION__                             0x08010c3a   Data          15  serial.o(.constdata)
    __FUNCTION__                             0x08010c49   Data          16  serial.o(.constdata)
    __FUNCTION__                             0x08010c59   Data          15  serial.o(.constdata)
    __FUNCTION__                             0x08010c68   Data          16  serial.o(.constdata)
    __FUNCTION__                             0x08010c78   Data          18  serial.o(.constdata)
    __FUNCTION__                             0x08010c8a   Data          22  serial.o(.constdata)
    __FUNCTION__                             0x08010ca0   Data          17  serial.o(.constdata)
    .constdata                               0x08010cb1   Section       13  n32_msp.o(.constdata)
    __FUNCTION__                             0x08010cb1   Data          13  n32_msp.o(.constdata)
    .constdata                               0x08010cc0   Section     2644  drv_gpio.o(.constdata)
    pins                                     0x08010cc0   Data        2424  drv_gpio.o(.constdata)
    pin_irq_map                              0x08011638   Data         192  drv_gpio.o(.constdata)
    _n32_pin_ops                             0x080116f8   Data          28  drv_gpio.o(.constdata)
    .constdata                               0x08011714   Section       55  drv_soft_i2c.o(.constdata)
    soft_i2c_config                          0x08011714   Data           8  drv_soft_i2c.o(.constdata)
    n32_bit_ops_default                      0x0801171c   Data          32  drv_soft_i2c.o(.constdata)
    __FUNCTION__                             0x0801173c   Data          15  drv_soft_i2c.o(.constdata)
    .constdata                               0x0801174c   Section       42  drv_adc.o(.constdata)
    at_adc_ops                               0x0801174c   Data           8  drv_adc.o(.constdata)
    __FUNCTION__                             0x08011754   Data          16  drv_adc.o(.constdata)
    __FUNCTION__                             0x08011764   Data          18  drv_adc.o(.constdata)
    .constdata                               0x08011778   Section      104  drv_usart.o(.constdata)
    n32_uart_ops                             0x08011778   Data          20  drv_usart.o(.constdata)
    __FUNCTION__                             0x0801178c   Data          19  drv_usart.o(.constdata)
    __FUNCTION__                             0x0801179f   Data          17  drv_usart.o(.constdata)
    __FUNCTION__                             0x080117b0   Data          14  drv_usart.o(.constdata)
    __FUNCTION__                             0x080117be   Data          14  drv_usart.o(.constdata)
    __FUNCTION__                             0x080117cc   Data           9  drv_usart.o(.constdata)
    .constdata                               0x080117e0   Section      135  shell.o(.constdata)
    __FUNCTION__                             0x080117e0   Data          22  shell.o(.constdata)
    __FUNCTION__                             0x080117f6   Data          22  shell.o(.constdata)
    __FUNCTION__                             0x0801180c   Data          14  shell.o(.constdata)
    __FUNCTION__                             0x0801181a   Data          13  shell.o(.constdata)
    __FUNCTION__                             0x08011827   Data          17  shell.o(.constdata)
    __FUNCTION__                             0x08011838   Data          17  shell.o(.constdata)
    __FUNCTION__                             0x08011849   Data          15  shell.o(.constdata)
    __FUNCTION__                             0x08011858   Data          15  shell.o(.constdata)
    .constdata                               0x08011867   Section       14  msh.o(.constdata)
    __FUNCTION__                             0x08011867   Data          14  msh.o(.constdata)
    .constdata                               0x08011878   Section      100  cmd.o(.constdata)
    device_type_str                          0x08011878   Data         100  cmd.o(.constdata)
    .constdata                               0x080118dc   Section      108  timer.o(.constdata)
    __FUNCTION__                             0x080118dc   Data          14  timer.o(.constdata)
    __FUNCTION__                             0x080118ea   Data          16  timer.o(.constdata)
    __FUNCTION__                             0x080118fa   Data          16  timer.o(.constdata)
    __FUNCTION__                             0x0801190a   Data          16  timer.o(.constdata)
    __FUNCTION__                             0x0801191a   Data          15  timer.o(.constdata)
    __FUNCTION__                             0x08011929   Data          14  timer.o(.constdata)
    __FUNCTION__                             0x08011937   Data          17  timer.o(.constdata)
    .constdata                               0x08011948   Section       78  scheduler.o(.constdata)
    __FUNCTION__                             0x08011948   Data          26  scheduler.o(.constdata)
    __FUNCTION__                             0x08011962   Data          26  scheduler.o(.constdata)
    __FUNCTION__                             0x0801197c   Data          26  scheduler.o(.constdata)
    .constdata                               0x08011996   Section       20  components.o(.constdata)
    __FUNCTION__                             0x08011996   Data          20  components.o(.constdata)
    .constdata                               0x080119aa   Section      128  object.o(.constdata)
    __FUNCTION__                             0x080119aa   Data          15  object.o(.constdata)
    __FUNCTION__                             0x080119b9   Data          17  object.o(.constdata)
    __FUNCTION__                             0x080119ca   Data          19  object.o(.constdata)
    __FUNCTION__                             0x080119dd   Data          17  object.o(.constdata)
    __FUNCTION__                             0x080119ee   Data          26  object.o(.constdata)
    __FUNCTION__                             0x08011a08   Data          19  object.o(.constdata)
    __FUNCTION__                             0x08011a1b   Data          15  object.o(.constdata)
    .constdata                               0x08011a2a   Section      186  device.o(.constdata)
    __FUNCTION__                             0x08011a2a   Data          21  device.o(.constdata)
    __FUNCTION__                             0x08011a3f   Data          18  device.o(.constdata)
    __FUNCTION__                             0x08011a51   Data          15  device.o(.constdata)
    __FUNCTION__                             0x08011a60   Data          15  device.o(.constdata)
    __FUNCTION__                             0x08011a6f   Data          16  device.o(.constdata)
    __FUNCTION__                             0x08011a7f   Data          15  device.o(.constdata)
    __FUNCTION__                             0x08011a8e   Data          16  device.o(.constdata)
    __FUNCTION__                             0x08011a9e   Data          18  device.o(.constdata)
    __FUNCTION__                             0x08011ab0   Data          26  device.o(.constdata)
    __FUNCTION__                             0x08011aca   Data          26  device.o(.constdata)
    .constdata                               0x08011ae4   Section      539  ipc.o(.constdata)
    __FUNCTION__                             0x08011ae4   Data          18  ipc.o(.constdata)
    __FUNCTION__                             0x08011af6   Data          12  ipc.o(.constdata)
    __FUNCTION__                             0x08011b02   Data          14  ipc.o(.constdata)
    __FUNCTION__                             0x08011b10   Data          14  ipc.o(.constdata)
    __FUNCTION__                             0x08011b1e   Data          14  ipc.o(.constdata)
    __FUNCTION__                             0x08011b2c   Data          12  ipc.o(.constdata)
    __FUNCTION__                             0x08011b38   Data          15  ipc.o(.constdata)
    __FUNCTION__                             0x08011b47   Data          15  ipc.o(.constdata)
    __FUNCTION__                             0x08011b56   Data          14  ipc.o(.constdata)
    __FUNCTION__                             0x08011b64   Data          16  ipc.o(.constdata)
    __FUNCTION__                             0x08011b74   Data          16  ipc.o(.constdata)
    __FUNCTION__                             0x08011b84   Data          16  ipc.o(.constdata)
    __FUNCTION__                             0x08011b94   Data          14  ipc.o(.constdata)
    __FUNCTION__                             0x08011ba2   Data          17  ipc.o(.constdata)
    __FUNCTION__                             0x08011bb3   Data          17  ipc.o(.constdata)
    __FUNCTION__                             0x08011bc4   Data          14  ipc.o(.constdata)
    __FUNCTION__                             0x08011bd2   Data          16  ipc.o(.constdata)
    __FUNCTION__                             0x08011be2   Data          16  ipc.o(.constdata)
    __FUNCTION__                             0x08011bf2   Data          16  ipc.o(.constdata)
    __FUNCTION__                             0x08011c02   Data          14  ipc.o(.constdata)
    __FUNCTION__                             0x08011c10   Data          14  ipc.o(.constdata)
    __FUNCTION__                             0x08011c1e   Data          17  ipc.o(.constdata)
    __FUNCTION__                             0x08011c2f   Data          11  ipc.o(.constdata)
    __FUNCTION__                             0x08011c3a   Data          13  ipc.o(.constdata)
    __FUNCTION__                             0x08011c47   Data          13  ipc.o(.constdata)
    __FUNCTION__                             0x08011c54   Data          13  ipc.o(.constdata)
    __FUNCTION__                             0x08011c61   Data          16  ipc.o(.constdata)
    __FUNCTION__                             0x08011c71   Data          13  ipc.o(.constdata)
    __FUNCTION__                             0x08011c7e   Data          11  ipc.o(.constdata)
    __FUNCTION__                             0x08011c89   Data          14  ipc.o(.constdata)
    __FUNCTION__                             0x08011c97   Data          11  ipc.o(.constdata)
    __FUNCTION__                             0x08011ca2   Data          13  ipc.o(.constdata)
    __FUNCTION__                             0x08011caf   Data          13  ipc.o(.constdata)
    __FUNCTION__                             0x08011cbc   Data          13  ipc.o(.constdata)
    __FUNCTION__                             0x08011cc9   Data          16  ipc.o(.constdata)
    __FUNCTION__                             0x08011cd9   Data          13  ipc.o(.constdata)
    __FUNCTION__                             0x08011ce6   Data          11  ipc.o(.constdata)
    __FUNCTION__                             0x08011cf1   Data          14  ipc.o(.constdata)
    .constdata                               0x08011cff   Section      323  kservice.o(.constdata)
    small_digits                             0x08011dff   Data          17  kservice.o(.constdata)
    large_digits                             0x08011e10   Data          17  kservice.o(.constdata)
    __FUNCTION__                             0x08011e21   Data          13  kservice.o(.constdata)
    __FUNCTION__                             0x08011e2e   Data          20  kservice.o(.constdata)
    .constdata                               0x08011e42   Section       69  mem.o(.constdata)
    __FUNCTION__                             0x08011e42   Data          11  mem.o(.constdata)
    __FUNCTION__                             0x08011e4d   Data          15  mem.o(.constdata)
    __FUNCTION__                             0x08011e5c   Data          14  mem.o(.constdata)
    __FUNCTION__                             0x08011e6a   Data          16  mem.o(.constdata)
    __FUNCTION__                             0x08011e7a   Data          13  mem.o(.constdata)
    .constdata                               0x08011e87   Section      187  thread.o(.constdata)
    __FUNCTION__                             0x08011e87   Data          16  thread.o(.constdata)
    __FUNCTION__                             0x08011e97   Data          13  thread.o(.constdata)
    __FUNCTION__                             0x08011ea4   Data          15  thread.o(.constdata)
    __FUNCTION__                             0x08011eb3   Data          18  thread.o(.constdata)
    __FUNCTION__                             0x08011ec5   Data          17  thread.o(.constdata)
    __FUNCTION__                             0x08011ed6   Data          17  thread.o(.constdata)
    __FUNCTION__                             0x08011ee7   Data          16  thread.o(.constdata)
    __FUNCTION__                             0x08011ef7   Data          22  thread.o(.constdata)
    __FUNCTION__                             0x08011f0d   Data          18  thread.o(.constdata)
    __FUNCTION__                             0x08011f1f   Data          18  thread.o(.constdata)
    __FUNCTION__                             0x08011f31   Data          17  thread.o(.constdata)
    .constdata                               0x08011f42   Section       64  n32g45x_rcc.o(.constdata)
    s_ApbAhbPresTable                        0x08011f42   Data          16  n32g45x_rcc.o(.constdata)
    s_AdcHclkPresTable                       0x08011f52   Data          16  n32g45x_rcc.o(.constdata)
    s_AdcPllClkPresTable                     0x08011f62   Data          32  n32g45x_rcc.o(.constdata)
    .constdata                               0x08011f82   Section       16  system_n32g45x.o(.constdata)
    .constdata                               0x08011f92   Section       17  __printf_flags_wp.o(.constdata)
    maptable                                 0x08011f92   Data          17  __printf_flags_wp.o(.constdata)
    .conststring                             0x08011fa4   Section       99  serial.o(.conststring)
    .conststring                             0x08012008   Section      641  drv_gpio.o(.conststring)
    .conststring                             0x0801228c   Section        5  drv_soft_i2c.o(.conststring)
    .conststring                             0x08012294   Section        5  drv_adc.o(.conststring)
    .conststring                             0x0801229c   Section      421  cmd.o(.conststring)
    .conststring                             0x08012444   Section      346  ipc.o(.conststring)
    .conststring                             0x080125a0   Section      424  mem.o(.conststring)
    .conststring                             0x08012748   Section       66  thread.o(.conststring)
    .rodata.name                             0x0801278a   Section       18  oled.o(.rodata.name)
    .rodata.name                             0x0801279c   Section       17  adc.o(.rodata.name)
    .rodata.name                             0x080127ad   Section       62  n32_msp.o(.rodata.name)
    .rodata.name                             0x080127eb   Section       21  drv_common.o(.rodata.name)
    .rodata.name                             0x08012800   Section      102  msh.o(.rodata.name)
    .rodata.name                             0x08012866   Section      440  cmd.o(.rodata.name)
    .rti_fn.0                                0x08012a20   Section        4  components.o(.rti_fn.0)
    __tagsym$$used                           0x08012a20   Number         0  components.o(.rti_fn.0)
    .rti_fn.0.end                            0x08012a24   Section        4  components.o(.rti_fn.0.end)
    __tagsym$$used                           0x08012a24   Number         0  components.o(.rti_fn.0.end)
    .rti_fn.1                                0x08012a28   Section        4  drv_soft_i2c.o(.rti_fn.1)
    __tagsym$$used                           0x08012a28   Number         0  drv_soft_i2c.o(.rti_fn.1)
    .rti_fn.1                                0x08012a2c   Section        4  drv_adc.o(.rti_fn.1)
    __tagsym$$used                           0x08012a2c   Number         0  drv_adc.o(.rti_fn.1)
    .rti_fn.1.end                            0x08012a30   Section        4  components.o(.rti_fn.1.end)
    __tagsym$$used                           0x08012a30   Number         0  components.o(.rti_fn.1.end)
    .rti_fn.4                                0x08012a34   Section        4  i2c_core.o(.rti_fn.4)
    __tagsym$$used                           0x08012a34   Number         0  i2c_core.o(.rti_fn.4)
    .rti_fn.6                                0x08012a38   Section        4  shell.o(.rti_fn.6)
    __tagsym$$used                           0x08012a38   Number         0  shell.o(.rti_fn.6)
    .rti_fn.6.end                            0x08012a3c   Section        4  components.o(.rti_fn.6.end)
    __tagsym$$used                           0x08012a3c   Number         0  components.o(.rti_fn.6.end)
    FSymTab                                  0x08012a40   Section       12  oled.o(FSymTab)
    __tagsym$$used                           0x08012a40   Number         0  oled.o(FSymTab)
    FSymTab                                  0x08012a4c   Section       12  adc.o(FSymTab)
    __tagsym$$used                           0x08012a4c   Number         0  adc.o(FSymTab)
    FSymTab                                  0x08012a58   Section       24  n32_msp.o(FSymTab)
    __tagsym$$used                           0x08012a58   Number         0  n32_msp.o(FSymTab)
    __tagsym$$used                           0x08012a64   Number         0  n32_msp.o(FSymTab)
    FSymTab                                  0x08012a70   Section       12  drv_common.o(FSymTab)
    __tagsym$$used                           0x08012a70   Number         0  drv_common.o(FSymTab)
    FSymTab                                  0x08012a7c   Section       36  msh.o(FSymTab)
    __tagsym$$used                           0x08012a7c   Number         0  msh.o(FSymTab)
    __tagsym$$used                           0x08012a88   Number         0  msh.o(FSymTab)
    __tagsym$$used                           0x08012a94   Number         0  msh.o(FSymTab)
    FSymTab                                  0x08012aa0   Section      156  cmd.o(FSymTab)
    __tagsym$$used                           0x08012aa0   Number         0  cmd.o(FSymTab)
    __tagsym$$used                           0x08012aac   Number         0  cmd.o(FSymTab)
    __tagsym$$used                           0x08012ab8   Number         0  cmd.o(FSymTab)
    __tagsym$$used                           0x08012ac4   Number         0  cmd.o(FSymTab)
    __tagsym$$used                           0x08012ad0   Number         0  cmd.o(FSymTab)
    __tagsym$$used                           0x08012adc   Number         0  cmd.o(FSymTab)
    __tagsym$$used                           0x08012ae8   Number         0  cmd.o(FSymTab)
    __tagsym$$used                           0x08012af4   Number         0  cmd.o(FSymTab)
    __tagsym$$used                           0x08012b00   Number         0  cmd.o(FSymTab)
    __tagsym$$used                           0x08012b0c   Number         0  cmd.o(FSymTab)
    __tagsym$$used                           0x08012b18   Number         0  cmd.o(FSymTab)
    __tagsym$$used                           0x08012b24   Number         0  cmd.o(FSymTab)
    __tagsym$$used                           0x08012b30   Number         0  cmd.o(FSymTab)
    locale$$data                             0x08012b5c   Section      272  lc_ctype_c.o(locale$$data)
    __lcctype_c_name                         0x08012b60   Data           2  lc_ctype_c.o(locale$$data)
    __lcctype_c_start                        0x08012b68   Data           0  lc_ctype_c.o(locale$$data)
    __lcctype_c_end                          0x08012c6c   Data           0  lc_ctype_c.o(locale$$data)
    .data                                    0x20000000   Section        4  oled.o(.data)
    oled_thread_heater                       0x20000000   Data           4  oled.o(.data)
    .data                                    0x20000004   Section       12  mq3.o(.data)
    mq3_mb                                   0x20000004   Data           4  mq3.o(.data)
    mq3_thread                               0x2000000c   Data           4  mq3.o(.data)
    .data                                    0x20000010   Section        4  wifi.o(.data)
    wifi_thread_heater                       0x20000010   Data           4  wifi.o(.data)
    .data                                    0x20000014   Section        4  uart.o(.data)
    serial2                                  0x20000014   Data           4  uart.o(.data)
    .data                                    0x20000018   Section       16  cpuport.o(.data)
    rt_exception_hook                        0x20000024   Data           4  cpuport.o(.data)
    .data                                    0x20000028   Section        4  adc.o(.data)
    adc_device                               0x20000028   Data           4  adc.o(.data)
    .data                                    0x2000002c   Section        4  serial.o(.data)
    already_output                           0x2000002c   Data           4  serial.o(.data)
    .data                                    0x20000030   Section        4  n32_msp.o(.data)
    u2                                       0x20000030   Data           4  n32_msp.o(.data)
    .data                                    0x20000034   Section      192  drv_gpio.o(.data)
    .data                                    0x200000f4   Section       76  drv_adc.o(.data)
    n32_adc_obj                              0x200000f4   Data          76  drv_adc.o(.data)
    .data                                    0x20000140   Section       64  drv_usart.o(.data)
    .data                                    0x20000180   Section       16  shell.o(.data)
    finsh_prompt_custom                      0x2000018c   Data           4  shell.o(.data)
    .data                                    0x20000190   Section       32  timer.o(.data)
    _timer_list                              0x20000190   Data           8  timer.o(.data)
    _soft_timer_status                       0x20000198   Data           1  timer.o(.data)
    _soft_timer_list                         0x2000019c   Data           8  timer.o(.data)
    rt_timer_enter_hook                      0x200001a4   Data           4  timer.o(.data)
    rt_timer_exit_hook                       0x200001a8   Data           4  timer.o(.data)
    random_nr                                0x200001ac   Data           4  timer.o(.data)
    .data                                    0x200001b0   Section        4  clock.o(.data)
    rt_tick                                  0x200001b0   Data           4  clock.o(.data)
    .data                                    0x200001b4   Section       24  scheduler.o(.data)
    rt_scheduler_lock_nest                   0x200001b8   Data           2  scheduler.o(.data)
    rt_scheduler_hook                        0x200001c4   Data           4  scheduler.o(.data)
    rt_scheduler_switch_hook                 0x200001c8   Data           4  scheduler.o(.data)
    .data                                    0x200001cc   Section      180  object.o(.data)
    _object_container                        0x200001cc   Data         160  object.o(.data)
    rt_object_attach_hook                    0x2000026c   Data           4  object.o(.data)
    rt_object_detach_hook                    0x20000270   Data           4  object.o(.data)
    .data                                    0x20000280   Section        9  irq.o(.data)
    rt_interrupt_enter_hook                  0x20000280   Data           4  irq.o(.data)
    rt_interrupt_leave_hook                  0x20000284   Data           4  irq.o(.data)
    .data                                    0x2000028c   Section       24  kservice.o(.data)
    __rt_errno                               0x2000028c   Data           4  kservice.o(.data)
    _console_device                          0x20000290   Data           4  kservice.o(.data)
    rt_malloc_hook                           0x20000294   Data           4  kservice.o(.data)
    rt_free_hook                             0x20000298   Data           4  kservice.o(.data)
    system_heap                              0x2000029c   Data           4  kservice.o(.data)
    .data                                    0x200002a4   Section        8  idle.o(.data)
    _rt_thread_defunct                       0x200002a4   Data           8  idle.o(.data)
    .data                                    0x200002ac   Section       12  thread.o(.data)
    rt_thread_suspend_hook                   0x200002ac   Data           4  thread.o(.data)
    rt_thread_resume_hook                    0x200002b0   Data           4  thread.o(.data)
    rt_thread_inited_hook                    0x200002b4   Data           4  thread.o(.data)
    .data                                    0x200002b8   Section        4  system_n32g45x.o(.data)
    .bss                                     0x200002bc   Section     1152  oled.o(.bss)
    .bss                                     0x2000073c   Section      120  uart.o(.bss)
    rx_sem                                   0x20000794   Data          32  uart.o(.bss)
    .bss                                     0x200007b4   Section       68  pin.o(.bss)
    _hw_pin                                  0x200007b4   Data          68  pin.o(.bss)
    .bss                                     0x200007f8   Section      152  drv_soft_i2c.o(.bss)
    i2c_obj                                  0x200007f8   Data         152  drv_soft_i2c.o(.bss)
    .bss                                     0x20000890   Section      168  drv_usart.o(.bss)
    .bss                                     0x20000938   Section      129  shell.o(.bss)
    finsh_prompt                             0x20000938   Data         129  shell.o(.bss)
    .bss                                     0x200009bc   Section      640  timer.o(.bss)
    _timer_thread                            0x200009bc   Data         128  timer.o(.bss)
    _timer_thread_stack                      0x20000a3c   Data         512  timer.o(.bss)
    .bss                                     0x20000c3c   Section      256  scheduler.o(.bss)
    .bss                                     0x20000d3c   Section      164  kservice.o(.bss)
    _lock                                    0x20000d3c   Data          36  kservice.o(.bss)
    rt_log_buf                               0x20000d60   Data         128  kservice.o(.bss)
    .bss                                     0x20000de0   Section      400  idle.o(.bss)
    idle                                     0x20000de0   Data         128  idle.o(.bss)
    rt_thread_stack                          0x20000e60   Data         256  idle.o(.bss)
    idle_hook_list                           0x20000f60   Data          16  idle.o(.bss)
    .bss                                     0x20000f70   Section       96  libspace.o(.bss)
    HEAP                                     0x20000fd0   Section      512  startup_n32g45x.o(HEAP)
    Heap_Mem                                 0x20000fd0   Data         512  startup_n32g45x.o(HEAP)
    STACK                                    0x200011d0   Section     1024  startup_n32g45x.o(STACK)
    Stack_Mem                                0x200011d0   Data        1024  startup_n32g45x.o(STACK)
    __initial_sp                             0x200015d0   Data           0  startup_n32g45x.o(STACK)

    Global Symbols

    Symbol Name                              Value     Ov Type        Size  Object(Section)

    BuildAttributes$$THM_ISAv4$E$P$D$K$B$S$7EM$VFPi3$EXTD16$VFPS$VFMA$PE$A:L22UL41UL21$X:L11$S22US41US21$IEEE1$IW$USESV6$~STKCKD$USESV7$~SHL$OSPACE$ROPI$EBA8$UX$STANDARDLIB$REQ8$PRES8$EABIv2 0x00000000   Number         0  anon$$obj.o ABSOLUTE
    __ARM_use_no_argv                        0x00000000   Number         0  main.o ABSOLUTE
    _printf_flags                            0x00000000   Number         0  printf_stubs.o ABSOLUTE
    _printf_return_value                     0x00000000   Number         0  printf_stubs.o ABSOLUTE
    _printf_sizespec                         0x00000000   Number         0  printf_stubs.o ABSOLUTE
    _printf_widthprec                        0x00000000   Number         0  printf_stubs.o ABSOLUTE
    __ARM_exceptions_init                     - Undefined Weak Reference
    __alloca_initialize                       - Undefined Weak Reference
    __arm_fini_                               - Undefined Weak Reference
    __arm_preinit_                            - Undefined Weak Reference
    __cpp_initialize__aeabi_                  - Undefined Weak Reference
    __cxa_finalize                            - Undefined Weak Reference
    __sigvec_lookup                           - Undefined Weak Reference
    _atexit_init                              - Undefined Weak Reference
    _call_atexit_fns                          - Undefined Weak Reference
    _clock_init                               - Undefined Weak Reference
    _fp_trap_init                             - Undefined Weak Reference
    _fp_trap_shutdown                         - Undefined Weak Reference
    _get_lc_collate                           - Undefined Weak Reference
    _get_lc_monetary                          - Undefined Weak Reference
    _get_lc_numeric                           - Undefined Weak Reference
    _get_lc_time                              - Undefined Weak Reference
    _getenv_init                              - Undefined Weak Reference
    _handle_redirection                       - Undefined Weak Reference
    _init_alloc                               - Undefined Weak Reference
    _init_user_alloc                          - Undefined Weak Reference
    _initio                                   - Undefined Weak Reference
    _printf_truncate_signed                   - Undefined Weak Reference
    _printf_truncate_unsigned                 - Undefined Weak Reference
    _rand_init                                - Undefined Weak Reference
    _signal_finish                            - Undefined Weak Reference
    _signal_init                              - Undefined Weak Reference
    _terminate_alloc                          - Undefined Weak Reference
    _terminate_user_alloc                     - Undefined Weak Reference
    _terminateio                              - Undefined Weak Reference
    __Vectors_Size                           0x00000198   Number         0  startup_n32g45x.o ABSOLUTE
    __Vectors                                0x08000000   Data           4  startup_n32g45x.o(RESET)
    __Vectors_End                            0x08000198   Data           0  startup_n32g45x.o(RESET)
    __main                                   0x08000199   Thumb Code     8  __main.o(!!!main)
    __scatterload                            0x080001a1   Thumb Code     0  __scatter.o(!!!scatter)
    __scatterload_rt2                        0x080001a1   Thumb Code    44  __scatter.o(!!!scatter)
    __scatterload_rt2_thumb_only             0x080001a1   Thumb Code     0  __scatter.o(!!!scatter)
    __scatterload_null                       0x080001af   Thumb Code     0  __scatter.o(!!!scatter)
    __decompress                             0x080001d5   Thumb Code    90  __dczerorl2.o(!!dczerorl2)
    __decompress1                            0x080001d5   Thumb Code     0  __dczerorl2.o(!!dczerorl2)
    __scatterload_zeroinit                   0x08000231   Thumb Code    28  __scatter_zi.o(!!handler_zi)
    _printf_d                                0x0800024d   Thumb Code     0  _printf_d.o(.ARM.Collect$$_printf_percent$$00000009)
    _printf_percent                          0x0800024d   Thumb Code     0  _printf_percent.o(.ARM.Collect$$_printf_percent$$00000000)
    _printf_percent_end                      0x08000253   Thumb Code     0  _printf_percent_end.o(.ARM.Collect$$_printf_percent$$00000017)
    __rt_lib_init                            0x08000257   Thumb Code     0  libinit.o(.ARM.Collect$$libinit$$00000000)
    __rt_lib_init_fp_1                       0x08000259   Thumb Code     0  libinit2.o(.ARM.Collect$$libinit$$00000001)
    __rt_lib_init_heap_1                     0x0800025d   Thumb Code     0  libinit2.o(.ARM.Collect$$libinit$$0000000A)
    __rt_lib_init_lc_common                  0x0800025d   Thumb Code     0  libinit2.o(.ARM.Collect$$libinit$$0000000F)
    __rt_lib_init_preinit_1                  0x0800025d   Thumb Code     0  libinit2.o(.ARM.Collect$$libinit$$00000004)
    __rt_lib_init_rand_1                     0x0800025d   Thumb Code     0  libinit2.o(.ARM.Collect$$libinit$$0000000E)
    __rt_lib_init_user_alloc_1               0x0800025d   Thumb Code     0  libinit2.o(.ARM.Collect$$libinit$$0000000C)
    __rt_lib_init_lc_collate_1               0x08000263   Thumb Code     0  libinit2.o(.ARM.Collect$$libinit$$00000011)
    __rt_lib_init_lc_ctype_2                 0x08000263   Thumb Code     0  libinit2.o(.ARM.Collect$$libinit$$00000012)
    __rt_lib_init_alloca_1                   0x0800026f   Thumb Code     0  libinit2.o(.ARM.Collect$$libinit$$0000002E)
    __rt_lib_init_argv_1                     0x0800026f   Thumb Code     0  libinit2.o(.ARM.Collect$$libinit$$0000002C)
    __rt_lib_init_atexit_1                   0x0800026f   Thumb Code     0  libinit2.o(.ARM.Collect$$libinit$$0000001B)
    __rt_lib_init_clock_1                    0x0800026f   Thumb Code     0  libinit2.o(.ARM.Collect$$libinit$$00000021)
    __rt_lib_init_cpp_1                      0x0800026f   Thumb Code     0  libinit2.o(.ARM.Collect$$libinit$$00000032)
    __rt_lib_init_exceptions_1               0x0800026f   Thumb Code     0  libinit2.o(.ARM.Collect$$libinit$$00000030)
    __rt_lib_init_fp_trap_1                  0x0800026f   Thumb Code     0  libinit2.o(.ARM.Collect$$libinit$$0000001F)
    __rt_lib_init_getenv_1                   0x0800026f   Thumb Code     0  libinit2.o(.ARM.Collect$$libinit$$00000023)
    __rt_lib_init_lc_ctype_1                 0x0800026f   Thumb Code     0  libinit2.o(.ARM.Collect$$libinit$$00000013)
    __rt_lib_init_lc_monetary_1              0x0800026f   Thumb Code     0  libinit2.o(.ARM.Collect$$libinit$$00000015)
    __rt_lib_init_lc_numeric_1               0x0800026f   Thumb Code     0  libinit2.o(.ARM.Collect$$libinit$$00000017)
    __rt_lib_init_lc_time_1                  0x0800026f   Thumb Code     0  libinit2.o(.ARM.Collect$$libinit$$00000019)
    __rt_lib_init_return                     0x0800026f   Thumb Code     0  libinit2.o(.ARM.Collect$$libinit$$00000033)
    __rt_lib_init_signal_1                   0x0800026f   Thumb Code     0  libinit2.o(.ARM.Collect$$libinit$$0000001D)
    __rt_lib_init_stdio_1                    0x0800026f   Thumb Code     0  libinit2.o(.ARM.Collect$$libinit$$00000025)
    __rt_lib_shutdown                        0x08000271   Thumb Code     0  libshutdown.o(.ARM.Collect$$libshutdown$$00000000)
    __rt_lib_shutdown_cpp_1                  0x08000273   Thumb Code     0  libshutdown2.o(.ARM.Collect$$libshutdown$$00000004)
    __rt_lib_shutdown_fini_1                 0x08000273   Thumb Code     0  libshutdown2.o(.ARM.Collect$$libshutdown$$00000002)
    __rt_lib_shutdown_fp_trap_1              0x08000273   Thumb Code     0  libshutdown2.o(.ARM.Collect$$libshutdown$$00000009)
    __rt_lib_shutdown_heap_1                 0x08000273   Thumb Code     0  libshutdown2.o(.ARM.Collect$$libshutdown$$00000011)
    __rt_lib_shutdown_return                 0x08000273   Thumb Code     0  libshutdown2.o(.ARM.Collect$$libshutdown$$00000012)
    __rt_lib_shutdown_signal_1               0x08000273   Thumb Code     0  libshutdown2.o(.ARM.Collect$$libshutdown$$0000000C)
    __rt_lib_shutdown_stdio_1                0x08000273   Thumb Code     0  libshutdown2.o(.ARM.Collect$$libshutdown$$00000006)
    __rt_lib_shutdown_user_alloc_1           0x08000273   Thumb Code     0  libshutdown2.o(.ARM.Collect$$libshutdown$$0000000E)
    __rt_entry                               0x08000275   Thumb Code     0  __rtentry.o(.ARM.Collect$$rtentry$$00000000)
    __rt_entry_presh_1                       0x08000275   Thumb Code     0  __rtentry2.o(.ARM.Collect$$rtentry$$00000002)
    __rt_entry_sh                            0x08000275   Thumb Code     0  __rtentry4.o(.ARM.Collect$$rtentry$$00000004)
    __rt_entry_li                            0x0800027b   Thumb Code     0  __rtentry2.o(.ARM.Collect$$rtentry$$0000000A)
    __rt_entry_postsh_1                      0x0800027b   Thumb Code     0  __rtentry2.o(.ARM.Collect$$rtentry$$00000009)
    __rt_entry_main                          0x0800027f   Thumb Code     0  __rtentry2.o(.ARM.Collect$$rtentry$$0000000D)
    __rt_entry_postli_1                      0x0800027f   Thumb Code     0  __rtentry2.o(.ARM.Collect$$rtentry$$0000000C)
    __rt_exit                                0x08000287   Thumb Code     0  rtexit.o(.ARM.Collect$$rtexit$$00000000)
    __rt_exit_ls                             0x08000289   Thumb Code     0  rtexit2.o(.ARM.Collect$$rtexit$$00000003)
    __rt_exit_prels_1                        0x08000289   Thumb Code     0  rtexit2.o(.ARM.Collect$$rtexit$$00000002)
    __rt_exit_exit                           0x0800028d   Thumb Code     0  rtexit2.o(.ARM.Collect$$rtexit$$00000004)
    $Super$$main                             0x08000293   Thumb Code    32  main.o(.text)
    OLED_WR_Byte                             0x080002b5   Thumb Code   108  oled.o(.text)
    OLED_ColorTurn                           0x08000321   Thumb Code    28  oled.o(.text)
    OLED_DisplayTurn                         0x0800033d   Thumb Code    44  oled.o(.text)
    OLED_DisPlay_On                          0x08000369   Thumb Code    28  oled.o(.text)
    OLED_DisPlay_Off                         0x08000385   Thumb Code    28  oled.o(.text)
    OLED_Refresh                             0x080003a1   Thumb Code    70  oled.o(.text)
    OLED_Clear                               0x080003e7   Thumb Code    42  oled.o(.text)
    OLED_DrawPoint                           0x08000411   Thumb Code   114  oled.o(.text)
    OLED_DrawLine                            0x08000483   Thumb Code   172  oled.o(.text)
    OLED_DrawCircle                          0x0800052f   Thumb Code   168  oled.o(.text)
    OLED_ShowChar                            0x080005d7   Thumb Code   300  oled.o(.text)
    OLED_ShowString                          0x08000703   Thumb Code    74  oled.o(.text)
    OLED_Pow                                 0x0800074d   Thumb Code    22  oled.o(.text)
    OLED_ShowNum                             0x08000763   Thumb Code   160  oled.o(.text)
    OLED_ShowChinese                         0x08000803   Thumb Code   244  oled.o(.text)
    OLED_ScrollDisplay                       0x080008f7   Thumb Code   168  oled.o(.text)
    OLED_ShowPicture                         0x0800099f   Thumb Code   214  oled.o(.text)
    OLED_Init                                0x08000acb   Thumb Code   552  oled.o(.text)
    mq3_mb_recv                              0x08000d49   Thumb Code    20  mq3.o(.text)
    mq3_config                               0x08000db3   Thumb Code   118  mq3.o(.text)
    buzzer_config                            0x08000ea5   Thumb Code    24  buzzer.o(.text)
    ESP8266_SendCmd                          0x08000ebd   Thumb Code   114  wifi.o(.text)
    wifi_send_data                           0x08000f2f   Thumb Code    56  wifi.o(.text)
    ESP8266_Init                             0x08000fa3   Thumb Code   114  wifi.o(.text)
    uart2_wifi_init                          0x08001131   Thumb Code   106  uart.o(.text)
    usart2_send_char                         0x0800119b   Thumb Code    28  uart.o(.text)
    usart2_send_buff                         0x080011b7   Thumb Code    36  uart.o(.text)
    _sys_open                                0x08001221   Thumb Code    78  syscalls.o(.text)
    _sys_close                               0x0800126f   Thumb Code    34  syscalls.o(.text)
    _sys_read                                0x08001291   Thumb Code    44  syscalls.o(.text)
    _sys_write                               0x080012bd   Thumb Code    86  syscalls.o(.text)
    _sys_seek                                0x08001313   Thumb Code    36  syscalls.o(.text)
    _sys_tmpnam                              0x08001337   Thumb Code    24  syscalls.o(.text)
    _sys_command_string                      0x0800134f   Thumb Code     6  syscalls.o(.text)
    _ttywrch                                 0x08001355   Thumb Code    14  syscalls.o(.text)
    _sys_exit                                0x08001363   Thumb Code    14  syscalls.o(.text)
    _sys_flen                                0x08001371   Thumb Code    34  syscalls.o(.text)
    _sys_istty                               0x08001393   Thumb Code    18  syscalls.o(.text)
    remove                                   0x080013a5   Thumb Code    34  syscalls.o(.text)
    __rt_libc_exit                           0x08001441   Thumb Code    50  stdlib.o(.text)
    system                                   0x08001473   Thumb Code    50  stdlib.o(.text)
    rt_hw_interrupt_disable                  0x080014c9   Thumb Code     8  context_rvds.o(.text)
    rt_hw_interrupt_enable                   0x080014d1   Thumb Code     6  context_rvds.o(.text)
    rt_hw_context_switch                     0x080014d7   Thumb Code    32  context_rvds.o(.text)
    rt_hw_context_switch_interrupt           0x080014d7   Thumb Code     0  context_rvds.o(.text)
    PendSV_Handler                           0x080014f7   Thumb Code   108  context_rvds.o(.text)
    rt_hw_context_switch_to                  0x08001563   Thumb Code    68  context_rvds.o(.text)
    rt_hw_interrupt_thread_switch            0x080015a7   Thumb Code     2  context_rvds.o(.text)
    HardFault_Handler                        0x080015a9   Thumb Code    56  context_rvds.o(.text)
    rt_hw_stack_init                         0x080015fd   Thumb Code    74  cpuport.o(.text)
    rt_hw_exception_install                  0x08001647   Thumb Code     6  cpuport.o(.text)
    rt_hw_hard_fault_exception               0x0800182b   Thumb Code   220  cpuport.o(.text)
    rt_hw_cpu_shutdown                       0x08001907   Thumb Code    22  cpuport.o(.text)
    rt_hw_cpu_reset                          0x0800191d   Thumb Code    10  cpuport.o(.text)
    rt_i2c_bus_device_register               0x08001c09   Thumb Code    66  i2c_core.o(.text)
    rt_i2c_bus_device_find                   0x08001c4b   Thumb Code    54  i2c_core.o(.text)
    rt_i2c_transfer                          0x08001c81   Thumb Code    82  i2c_core.o(.text)
    rt_i2c_control                           0x08001cd3   Thumb Code    62  i2c_core.o(.text)
    rt_i2c_master_send                       0x08001d11   Thumb Code    62  i2c_core.o(.text)
    rt_i2c_master_recv                       0x08001d4f   Thumb Code    78  i2c_core.o(.text)
    rt_i2c_core_init                         0x08001d9d   Thumb Code     4  i2c_core.o(.text)
    rt_i2c_bus_device_device_init            0x08001f4f   Thumb Code    60  i2c_dev.o(.text)
    rt_i2c_bit_add_bus                       0x08002441   Thumb Code    20  i2c-bit-ops.o(.text)
    rt_completion_init                       0x0800258d   Thumb Code    42  completion.o(.text)
    rt_completion_wait                       0x080025b7   Thumb Code   198  completion.o(.text)
    rt_completion_done                       0x0800267d   Thumb Code    76  completion.o(.text)
    rt_data_queue_init                       0x08002767   Thumb Code   124  dataqueue.o(.text)
    rt_data_queue_push                       0x080027e3   Thumb Code   346  dataqueue.o(.text)
    rt_data_queue_len                        0x0800293d   Thumb Code   118  dataqueue.o(.text)
    rt_data_queue_pop                        0x080029b3   Thumb Code   574  dataqueue.o(.text)
    rt_data_queue_peek                       0x08002bf1   Thumb Code   108  dataqueue.o(.text)
    rt_data_queue_reset                      0x08002c5d   Thumb Code   192  dataqueue.o(.text)
    rt_data_queue_deinit                     0x08002d1d   Thumb Code    74  dataqueue.o(.text)
    rt_hw_adc_register                       0x08002e15   Thumb Code    82  adc.o(.text)
    rt_adc_read                              0x08002e67   Thumb Code    34  adc.o(.text)
    rt_adc_enable                            0x08002e89   Thumb Code    50  adc.o(.text)
    rt_adc_disable                           0x08002ebb   Thumb Code    50  adc.o(.text)
    rt_device_pin_register                   0x08003329   Thumb Code    56  pin.o(.text)
    rt_pin_attach_irq                        0x08003361   Thumb Code    62  pin.o(.text)
    rt_pin_detach_irq                        0x0800339f   Thumb Code    48  pin.o(.text)
    rt_pin_irq_enable                        0x080033cf   Thumb Code    52  pin.o(.text)
    rt_pin_mode                              0x08003403   Thumb Code    38  pin.o(.text)
    rt_pin_write                             0x08003429   Thumb Code    38  pin.o(.text)
    rt_pin_read                              0x0800344f   Thumb Code    34  pin.o(.text)
    rt_pin_get                               0x08003471   Thumb Code    62  pin.o(.text)
    rt_hw_serial_register                    0x08003e79   Thumb Code    82  serial.o(.text)
    rt_hw_serial_isr                         0x08003ecb   Thumb Code   398  serial.o(.text)
    n32_msp_usart_init                       0x08004245   Thumb Code   144  n32_msp.o(.text)
    n32_msp_adc_init                         0x080042d5   Thumb Code    68  n32_msp.o(.text)
    n32_msp_jtag_init                        0x08004319   Thumb Code   112  n32_msp.o(.text)
    Reset_Handler                            0x08004541   Thumb Code     8  startup_n32g45x.o(.text)
    NMI_Handler                              0x08004549   Thumb Code     2  startup_n32g45x.o(.text)
    MemManage_Handler                        0x0800454d   Thumb Code     2  startup_n32g45x.o(.text)
    BusFault_Handler                         0x0800454f   Thumb Code     2  startup_n32g45x.o(.text)
    UsageFault_Handler                       0x08004551   Thumb Code     2  startup_n32g45x.o(.text)
    SVC_Handler                              0x08004553   Thumb Code     2  startup_n32g45x.o(.text)
    DebugMon_Handler                         0x08004555   Thumb Code     2  startup_n32g45x.o(.text)
    ADC1_2_IRQHandler                        0x0800455b   Thumb Code     0  startup_n32g45x.o(.text)
    ADC3_4_IRQHandler                        0x0800455b   Thumb Code     0  startup_n32g45x.o(.text)
    CAN1_RX1_IRQHandler                      0x0800455b   Thumb Code     0  startup_n32g45x.o(.text)
    CAN1_SCE_IRQHandler                      0x0800455b   Thumb Code     0  startup_n32g45x.o(.text)
    CAN2_RX0_IRQHandler                      0x0800455b   Thumb Code     0  startup_n32g45x.o(.text)
    CAN2_RX1_IRQHandler                      0x0800455b   Thumb Code     0  startup_n32g45x.o(.text)
    CAN2_SCE_IRQHandler                      0x0800455b   Thumb Code     0  startup_n32g45x.o(.text)
    CAN2_TX_IRQHandler                       0x0800455b   Thumb Code     0  startup_n32g45x.o(.text)
    COMP7_IRQHandler                         0x0800455b   Thumb Code     0  startup_n32g45x.o(.text)
    COMP_1_2_3_IRQHandler                    0x0800455b   Thumb Code     0  startup_n32g45x.o(.text)
    COMP_4_5_6_IRQHandler                    0x0800455b   Thumb Code     0  startup_n32g45x.o(.text)
    DMA1_Channel1_IRQHandler                 0x0800455b   Thumb Code     0  startup_n32g45x.o(.text)
    DMA1_Channel2_IRQHandler                 0x0800455b   Thumb Code     0  startup_n32g45x.o(.text)
    DMA1_Channel3_IRQHandler                 0x0800455b   Thumb Code     0  startup_n32g45x.o(.text)
    DMA1_Channel4_IRQHandler                 0x0800455b   Thumb Code     0  startup_n32g45x.o(.text)
    DMA1_Channel7_IRQHandler                 0x0800455b   Thumb Code     0  startup_n32g45x.o(.text)
    DMA1_Channel8_IRQHandler                 0x0800455b   Thumb Code     0  startup_n32g45x.o(.text)
    DMA2_Channel1_IRQHandler                 0x0800455b   Thumb Code     0  startup_n32g45x.o(.text)
    DMA2_Channel2_IRQHandler                 0x0800455b   Thumb Code     0  startup_n32g45x.o(.text)
    DMA2_Channel3_IRQHandler                 0x0800455b   Thumb Code     0  startup_n32g45x.o(.text)
    DMA2_Channel4_IRQHandler                 0x0800455b   Thumb Code     0  startup_n32g45x.o(.text)
    DMA2_Channel5_IRQHandler                 0x0800455b   Thumb Code     0  startup_n32g45x.o(.text)
    DMA2_Channel6_IRQHandler                 0x0800455b   Thumb Code     0  startup_n32g45x.o(.text)
    DMA2_Channel7_IRQHandler                 0x0800455b   Thumb Code     0  startup_n32g45x.o(.text)
    DMA2_Channel8_IRQHandler                 0x0800455b   Thumb Code     0  startup_n32g45x.o(.text)
    DVP_IRQHandler                           0x0800455b   Thumb Code     0  startup_n32g45x.o(.text)
    ETH_IRQHandler                           0x0800455b   Thumb Code     0  startup_n32g45x.o(.text)
    ETH_WKUP_IRQHandler                      0x0800455b   Thumb Code     0  startup_n32g45x.o(.text)
    FLASH_IRQHandler                         0x0800455b   Thumb Code     0  startup_n32g45x.o(.text)
    I2C1_ER_IRQHandler                       0x0800455b   Thumb Code     0  startup_n32g45x.o(.text)
    I2C1_EV_IRQHandler                       0x0800455b   Thumb Code     0  startup_n32g45x.o(.text)
    I2C2_ER_IRQHandler                       0x0800455b   Thumb Code     0  startup_n32g45x.o(.text)
    I2C2_EV_IRQHandler                       0x0800455b   Thumb Code     0  startup_n32g45x.o(.text)
    I2C3_ER_IRQHandler                       0x0800455b   Thumb Code     0  startup_n32g45x.o(.text)
    I2C3_EV_IRQHandler                       0x0800455b   Thumb Code     0  startup_n32g45x.o(.text)
    I2C4_ER_IRQHandler                       0x0800455b   Thumb Code     0  startup_n32g45x.o(.text)
    I2C4_EV_IRQHandler                       0x0800455b   Thumb Code     0  startup_n32g45x.o(.text)
    MMU_IRQHandler                           0x0800455b   Thumb Code     0  startup_n32g45x.o(.text)
    PVD_IRQHandler                           0x0800455b   Thumb Code     0  startup_n32g45x.o(.text)
    QSPI_IRQHandler                          0x0800455b   Thumb Code     0  startup_n32g45x.o(.text)
    RCC_IRQHandler                           0x0800455b   Thumb Code     0  startup_n32g45x.o(.text)
    RSRAM_IRQHandler                         0x0800455b   Thumb Code     0  startup_n32g45x.o(.text)
    RTCAlarm_IRQHandler                      0x0800455b   Thumb Code     0  startup_n32g45x.o(.text)
    RTC_WKUP_IRQHandler                      0x0800455b   Thumb Code     0  startup_n32g45x.o(.text)
    SAC_IRQHandler                           0x0800455b   Thumb Code     0  startup_n32g45x.o(.text)
    SDIO_IRQHandler                          0x0800455b   Thumb Code     0  startup_n32g45x.o(.text)
    SPI1_IRQHandler                          0x0800455b   Thumb Code     0  startup_n32g45x.o(.text)
    SPI2_IRQHandler                          0x0800455b   Thumb Code     0  startup_n32g45x.o(.text)
    SPI3_IRQHandler                          0x0800455b   Thumb Code     0  startup_n32g45x.o(.text)
    TAMPER_IRQHandler                        0x0800455b   Thumb Code     0  startup_n32g45x.o(.text)
    TIM1_BRK_IRQHandler                      0x0800455b   Thumb Code     0  startup_n32g45x.o(.text)
    TIM1_CC_IRQHandler                       0x0800455b   Thumb Code     0  startup_n32g45x.o(.text)
    TIM1_TRG_COM_IRQHandler                  0x0800455b   Thumb Code     0  startup_n32g45x.o(.text)
    TIM1_UP_IRQHandler                       0x0800455b   Thumb Code     0  startup_n32g45x.o(.text)
    TIM2_IRQHandler                          0x0800455b   Thumb Code     0  startup_n32g45x.o(.text)
    TIM3_IRQHandler                          0x0800455b   Thumb Code     0  startup_n32g45x.o(.text)
    TIM4_IRQHandler                          0x0800455b   Thumb Code     0  startup_n32g45x.o(.text)
    TIM5_IRQHandler                          0x0800455b   Thumb Code     0  startup_n32g45x.o(.text)
    TIM6_IRQHandler                          0x0800455b   Thumb Code     0  startup_n32g45x.o(.text)
    TIM7_IRQHandler                          0x0800455b   Thumb Code     0  startup_n32g45x.o(.text)
    TIM8_BRK_IRQHandler                      0x0800455b   Thumb Code     0  startup_n32g45x.o(.text)
    TIM8_CC_IRQHandler                       0x0800455b   Thumb Code     0  startup_n32g45x.o(.text)
    TIM8_TRG_COM_IRQHandler                  0x0800455b   Thumb Code     0  startup_n32g45x.o(.text)
    TIM8_UP_IRQHandler                       0x0800455b   Thumb Code     0  startup_n32g45x.o(.text)
    TSC_IRQHandler                           0x0800455b   Thumb Code     0  startup_n32g45x.o(.text)
    UART4_IRQHandler                         0x0800455b   Thumb Code     0  startup_n32g45x.o(.text)
    UART5_IRQHandler                         0x0800455b   Thumb Code     0  startup_n32g45x.o(.text)
    UART6_IRQHandler                         0x0800455b   Thumb Code     0  startup_n32g45x.o(.text)
    UART7_IRQHandler                         0x0800455b   Thumb Code     0  startup_n32g45x.o(.text)
    USART3_IRQHandler                        0x0800455b   Thumb Code     0  startup_n32g45x.o(.text)
    USBWakeUp_IRQHandler                     0x0800455b   Thumb Code     0  startup_n32g45x.o(.text)
    USB_HP_CAN1_TX_IRQHandler                0x0800455b   Thumb Code     0  startup_n32g45x.o(.text)
    USB_LP_CAN1_RX0_IRQHandler               0x0800455b   Thumb Code     0  startup_n32g45x.o(.text)
    WWDG_IRQHandler                          0x0800455b   Thumb Code     0  startup_n32g45x.o(.text)
    XFMC_IRQHandler                          0x0800455b   Thumb Code     0  startup_n32g45x.o(.text)
    __user_initial_stackheap                 0x0800455d   Thumb Code     0  startup_n32g45x.o(.text)
    Error_Handler                            0x080045a1   Thumb Code     4  board.o(.text)
    SystemClock_Config                       0x080045a5   Thumb Code    64  board.o(.text)
    SysTick_Handler                          0x080045e5   Thumb Code    16  board.o(.text)
    rt_hw_board_init                         0x080045f5   Thumb Code    50  board.o(.text)
    get_pin                                  0x08004645   Thumb Code    30  drv_gpio.o(.text)
    n32_pin_get                              0x08004663   Thumb Code    42  drv_gpio.o(.text)
    n32_pin_write                            0x0800468d   Thumb Code    52  drv_gpio.o(.text)
    n32_pin_read                             0x080046c1   Thumb Code    48  drv_gpio.o(.text)
    n32_pin_mode                             0x080046f1   Thumb Code   124  drv_gpio.o(.text)
    n32_pin_attach_irq                       0x0800478b   Thumb Code   220  drv_gpio.o(.text)
    n32_pin_dettach_irq                      0x08004867   Thumb Code   136  drv_gpio.o(.text)
    n32_pin_irq_enable                       0x080048ef   Thumb Code   356  drv_gpio.o(.text)
    n32_hw_pin_init                          0x08004a53   Thumb Code    18  drv_gpio.o(.text)
    EXTI0_IRQHandler                         0x08004aa1   Thumb Code    18  drv_gpio.o(.text)
    EXTI1_IRQHandler                         0x08004ab3   Thumb Code    18  drv_gpio.o(.text)
    EXTI2_IRQHandler                         0x08004ac5   Thumb Code    18  drv_gpio.o(.text)
    EXTI3_IRQHandler                         0x08004ad7   Thumb Code    18  drv_gpio.o(.text)
    EXTI4_IRQHandler                         0x08004ae9   Thumb Code    18  drv_gpio.o(.text)
    EXTI9_5_IRQHandler                       0x08004afb   Thumb Code    86  drv_gpio.o(.text)
    EXTI15_10_IRQHandler                     0x08004b51   Thumb Code   108  drv_gpio.o(.text)
    rt_hw_i2c_init                           0x08004cdb   Thumb Code   160  drv_soft_i2c.o(.text)
    USART1_IRQHandler                        0x0800548d   Thumb Code    18  drv_usart.o(.text)
    DMA1_Channel5_IRQHandler                 0x0800549f   Thumb Code    18  drv_usart.o(.text)
    USART2_IRQHandler                        0x080054b1   Thumb Code    18  drv_usart.o(.text)
    DMA1_Channel6_IRQHandler                 0x080054c3   Thumb Code    18  drv_usart.o(.text)
    rt_hw_usart_init                         0x080054f7   Thumb Code   102  drv_usart.o(.text)
    rt_hw_us_delay                           0x08005591   Thumb Code    72  drv_common.o(.text)
    finsh_set_prompt                         0x080055d9   Thumb Code    64  shell.o(.text)
    finsh_get_prompt                         0x08005619   Thumb Code    68  shell.o(.text)
    finsh_get_prompt_mode                    0x0800565d   Thumb Code    32  shell.o(.text)
    finsh_set_prompt_mode                    0x0800567d   Thumb Code    42  shell.o(.text)
    finsh_getchar                            0x080056a7   Thumb Code    74  shell.o(.text)
    finsh_set_device                         0x08005713   Thumb Code   158  shell.o(.text)
    finsh_get_device                         0x080057b1   Thumb Code    28  shell.o(.text)
    finsh_set_echo                           0x080057cd   Thumb Code    44  shell.o(.text)
    finsh_get_echo                           0x080057f9   Thumb Code    34  shell.o(.text)
    finsh_thread_entry                       0x08005939   Thumb Code  1404  shell.o(.text)
    finsh_system_function_init               0x08005eb5   Thumb Code    10  shell.o(.text)
    finsh_system_init                        0x08005ebf   Thumb Code   102  shell.o(.text)
    msh_help                                 0x08005f61   Thumb Code    48  msh.o(.text)
    cmd_ps                                   0x08005f91   Thumb Code    14  msh.o(.text)
    cmd_free                                 0x08005f9f   Thumb Code    52  msh.o(.text)
    msh_exec                                 0x0800615f   Thumb Code    84  msh.o(.text)
    msh_auto_complete                        0x080061d3   Thumb Code   120  msh.o(.text)
    hello                                    0x08006311   Thumb Code    12  cmd.o(.text)
    version                                  0x08006329   Thumb Code    10  cmd.o(.text)
    list_thread                              0x080063e5   Thumb Code   294  cmd.o(.text)
    list_sem                                 0x08006535   Thumb Code   216  cmd.o(.text)
    list_event                               0x0800660d   Thumb Code   204  cmd.o(.text)
    list_mutex                               0x080066d9   Thumb Code   660  cmd.o(.text)
    list_mailbox                             0x0800696d   Thumb Code   226  cmd.o(.text)
    list_msgqueue                            0x08006a4f   Thumb Code   216  cmd.o(.text)
    list_mempool                             0x08006b27   Thumb Code   232  cmd.o(.text)
    list_timer                               0x08006c0f   Thumb Code   846  cmd.o(.text)
    list_device                              0x08006f5d   Thumb Code   172  cmd.o(.text)
    list                                     0x08007009   Thumb Code    54  cmd.o(.text)
    rt_timer_enter_sethook                   0x08007125   Thumb Code     6  timer.o(.text)
    rt_timer_exit_sethook                    0x0800712b   Thumb Code     6  timer.o(.text)
    rt_timer_init                            0x080071bb   Thumb Code    94  timer.o(.text)
    rt_timer_detach                          0x08007219   Thumb Code    96  timer.o(.text)
    rt_timer_create                          0x08007279   Thumb Code    88  timer.o(.text)
    rt_timer_delete                          0x080072d1   Thumb Code    96  timer.o(.text)
    rt_timer_start                           0x08007331   Thumb Code   346  timer.o(.text)
    rt_timer_stop                            0x0800748b   Thumb Code   102  timer.o(.text)
    rt_timer_control                         0x080074f1   Thumb Code   434  timer.o(.text)
    rt_timer_check                           0x080076a3   Thumb Code   208  timer.o(.text)
    rt_timer_next_timeout_tick               0x08007773   Thumb Code    10  timer.o(.text)
    rt_soft_timer_check                      0x0800777d   Thumb Code   226  timer.o(.text)
    rt_system_timer_init                     0x0800789d   Thumb Code    24  timer.o(.text)
    rt_system_timer_thread_init              0x080078b5   Thumb Code    58  timer.o(.text)
    rt_tick_get                              0x0800792d   Thumb Code     6  clock.o(.text)
    rt_tick_set                              0x08007933   Thumb Code    22  clock.o(.text)
    rt_tick_increase                         0x08007949   Thumb Code    74  clock.o(.text)
    rt_tick_from_millisecond                 0x08007993   Thumb Code    58  clock.o(.text)
    rt_tick_get_millisecond                  0x080079cd   Thumb Code    14  clock.o(.text)
    rt_scheduler_sethook                     0x080079e1   Thumb Code     6  scheduler.o(.text)
    rt_scheduler_switch_sethook              0x080079e7   Thumb Code     6  scheduler.o(.text)
    rt_system_scheduler_init                 0x08007a61   Thumb Code    42  scheduler.o(.text)
    rt_schedule_remove_thread                0x08007a8b   Thumb Code    94  scheduler.o(.text)
    rt_system_scheduler_start                0x08007ae9   Thumb Code    36  scheduler.o(.text)
    rt_schedule_insert_thread                0x08007b0d   Thumb Code   118  scheduler.o(.text)
    rt_schedule                              0x08007b83   Thumb Code   318  scheduler.o(.text)
    rt_enter_critical                        0x08007cc1   Thumb Code    28  scheduler.o(.text)
    rt_exit_critical                         0x08007cdd   Thumb Code    60  scheduler.o(.text)
    rt_critical_level                        0x08007d19   Thumb Code     8  scheduler.o(.text)
    rt_components_board_init                 0x08007dc5   Thumb Code    20  components.o(.text)
    rt_components_init                       0x08007dd9   Thumb Code    20  components.o(.text)
    main_thread_entry                        0x08007ded   Thumb Code    14  components.o(.text)
    rt_application_init                      0x08007dfb   Thumb Code    48  components.o(.text)
    rtthread_startup                         0x08007e2b   Thumb Code    42  components.o(.text)
    main                                     0x08007e55   Thumb Code    10  components.o(.text)
    rt_object_attach_sethook                 0x08007ea9   Thumb Code     6  object.o(.text)
    rt_object_detach_sethook                 0x08007eaf   Thumb Code     6  object.o(.text)
    rt_object_trytake_sethook                0x08007eb5   Thumb Code     6  object.o(.text)
    rt_object_take_sethook                   0x08007ebb   Thumb Code     6  object.o(.text)
    rt_object_put_sethook                    0x08007ec1   Thumb Code     6  object.o(.text)
    rt_object_get_information                0x08007ec7   Thumb Code    36  object.o(.text)
    rt_object_get_length                     0x08007eeb   Thumb Code    58  object.o(.text)
    rt_object_get_pointers                   0x08007f25   Thumb Code    86  object.o(.text)
    rt_object_init                           0x08007f7b   Thumb Code   140  object.o(.text)
    rt_object_detach                         0x08008007   Thumb Code    62  object.o(.text)
    rt_object_allocate                       0x08008045   Thumb Code   158  object.o(.text)
    rt_object_delete                         0x080080e3   Thumb Code    88  object.o(.text)
    rt_object_is_systemobject                0x0800813b   Thumb Code    34  object.o(.text)
    rt_object_get_type                       0x0800815d   Thumb Code    26  object.o(.text)
    rt_object_find                           0x08008177   Thumb Code   124  object.o(.text)
    rt_interrupt_enter_sethook               0x080082bd   Thumb Code     6  irq.o(.text)
    rt_interrupt_leave_sethook               0x080082c3   Thumb Code     6  irq.o(.text)
    rt_interrupt_enter                       0x080082c9   Thumb Code    46  irq.o(.text)
    rt_interrupt_leave                       0x080082f7   Thumb Code    46  irq.o(.text)
    rt_interrupt_get_nest                    0x08008325   Thumb Code    22  irq.o(.text)
    rt_device_find                           0x08008349   Thumb Code    14  device.o(.text)
    rt_device_register                       0x08008357   Thumb Code    52  device.o(.text)
    rt_device_unregister                     0x0800838b   Thumb Code    64  device.o(.text)
    rt_device_create                         0x080083cb   Thumb Code    46  device.o(.text)
    rt_device_destroy                        0x080083f9   Thumb Code    68  device.o(.text)
    rt_device_init                           0x0800843d   Thumb Code    64  device.o(.text)
    rt_device_open                           0x0800847d   Thumb Code   168  device.o(.text)
    rt_device_close                          0x08008525   Thumb Code    92  device.o(.text)
    rt_device_read                           0x08008581   Thumb Code    98  device.o(.text)
    rt_device_write                          0x080085e3   Thumb Code    98  device.o(.text)
    rt_device_control                        0x08008645   Thumb Code    66  device.o(.text)
    rt_device_set_rx_indicate                0x08008687   Thumb Code    48  device.o(.text)
    rt_device_set_tx_complete                0x080086b7   Thumb Code    48  device.o(.text)
    rt_sem_init                              0x080088bd   Thumb Code    88  ipc.o(.text)
    rt_sem_detach                            0x08008915   Thumb Code    78  ipc.o(.text)
    rt_sem_create                            0x08008963   Thumb Code   120  ipc.o(.text)
    rt_sem_delete                            0x080089db   Thumb Code   120  ipc.o(.text)
    rt_sem_take                              0x08008a53   Thumb Code   288  ipc.o(.text)
    rt_sem_trytake                           0x08008b73   Thumb Code    14  ipc.o(.text)
    rt_sem_release                           0x08008b81   Thumb Code   140  ipc.o(.text)
    rt_sem_control                           0x08008c0d   Thumb Code   448  ipc.o(.text)
    rt_mutex_init                            0x08008dcd   Thumb Code    62  ipc.o(.text)
    rt_mutex_detach                          0x08008e0b   Thumb Code    78  ipc.o(.text)
    rt_mutex_create                          0x08008e59   Thumb Code   102  ipc.o(.text)
    rt_mutex_delete                          0x08008ebf   Thumb Code   124  ipc.o(.text)
    rt_mutex_take                            0x08008f3b   Thumb Code   398  ipc.o(.text)
    rt_mutex_trytake                         0x080090c9   Thumb Code    14  ipc.o(.text)
    rt_mutex_release                         0x080090d7   Thumb Code   536  ipc.o(.text)
    rt_mutex_control                         0x080092ef   Thumb Code    52  ipc.o(.text)
    rt_event_init                            0x08009323   Thumb Code    66  ipc.o(.text)
    rt_event_detach                          0x08009365   Thumb Code    78  ipc.o(.text)
    rt_event_create                          0x080093b3   Thumb Code   108  ipc.o(.text)
    rt_event_delete                          0x0800941f   Thumb Code   124  ipc.o(.text)
    rt_event_send                            0x0800949b   Thumb Code   248  ipc.o(.text)
    rt_event_recv                            0x08009593   Thumb Code   606  ipc.o(.text)
    rt_event_control                         0x080097f1   Thumb Code    92  ipc.o(.text)
    rt_mb_init                               0x0800984d   Thumb Code    94  ipc.o(.text)
    rt_mb_detach                             0x080098ab   Thumb Code    86  ipc.o(.text)
    rt_mb_create                             0x08009901   Thumb Code   148  ipc.o(.text)
    rt_mb_delete                             0x08009995   Thumb Code   138  ipc.o(.text)
    rt_mb_send_wait                          0x08009a1f   Thumb Code   588  ipc.o(.text)
    rt_mb_send                               0x08009c6b   Thumb Code    18  ipc.o(.text)
    rt_mb_urgent                             0x08009c7d   Thumb Code   164  ipc.o(.text)
    rt_mb_recv                               0x08009d21   Thumb Code   434  ipc.o(.text)
    rt_mb_control                            0x08009ed3   Thumb Code   104  ipc.o(.text)
    rt_mq_init                               0x08009f3b   Thumb Code   146  ipc.o(.text)
    rt_mq_detach                             0x08009fcd   Thumb Code    86  ipc.o(.text)
    rt_mq_create                             0x0800a023   Thumb Code   318  ipc.o(.text)
    rt_mq_delete                             0x0800a161   Thumb Code   138  ipc.o(.text)
    rt_mq_send_wait                          0x0800a1eb   Thumb Code   488  ipc.o(.text)
    rt_mq_send                               0x0800a3d3   Thumb Code    22  ipc.o(.text)
    rt_mq_urgent                             0x0800a3e9   Thumb Code   240  ipc.o(.text)
    rt_mq_recv                               0x0800a4d9   Thumb Code   644  ipc.o(.text)
    rt_mq_control                            0x0800a75d   Thumb Code   128  ipc.o(.text)
    rt_get_errno                             0x0800a831   Thumb Code    32  kservice.o(.text)
    rt_set_errno                             0x0800a851   Thumb Code    36  kservice.o(.text)
    _rt_errno                                0x0800a875   Thumb Code    30  kservice.o(.text)
    rt_memset                                0x0800a893   Thumb Code    72  kservice.o(.text)
    rt_memcpy                                0x0800a8db   Thumb Code   124  kservice.o(.text)
    rt_memmove                               0x0800a957   Thumb Code    66  kservice.o(.text)
    rt_memcmp                                0x0800a999   Thumb Code    38  kservice.o(.text)
    rt_strlen                                0x0800a9bf   Thumb Code    18  kservice.o(.text)
    rt_strstr                                0x0800a9d1   Thumb Code    58  kservice.o(.text)
    rt_strcasecmp                            0x0800aa0b   Thumb Code    48  kservice.o(.text)
    rt_strncpy                               0x0800aa3b   Thumb Code    52  kservice.o(.text)
    rt_strcpy                                0x0800aa6f   Thumb Code    24  kservice.o(.text)
    rt_strncmp                               0x0800aa87   Thumb Code    40  kservice.o(.text)
    rt_strcmp                                0x0800aaaf   Thumb Code    28  kservice.o(.text)
    rt_strnlen                               0x0800aacb   Thumb Code    24  kservice.o(.text)
    strnlen                                  0x0800aacb   Thumb Code     0  kservice.o(.text)
    rt_hw_console_output                     0x0800aae3   Thumb Code     2  kservice.o(.text)
    rt_vsnprintf                             0x0800aca9   Thumb Code   824  kservice.o(.text)
    rt_kprintf                               0x0800afe1   Thumb Code    68  kservice.o(.text)
    rt_assert_handler                        0x0800b025   Thumb Code    56  kservice.o(.text)
    rt_malloc                                0x0800b07d   Thumb Code    52  kservice.o(.text)
    rt_strdup                                0x0800b0b1   Thumb Code    40  kservice.o(.text)
    strdup                                   0x0800b0b1   Thumb Code     0  kservice.o(.text)
    rt_show_version                          0x0800b0d9   Thumb Code    42  kservice.o(.text)
    rt_snprintf                              0x0800b103   Thumb Code    38  kservice.o(.text)
    rt_vsprintf                              0x0800b129   Thumb Code    22  kservice.o(.text)
    rt_sprintf                               0x0800b13f   Thumb Code    34  kservice.o(.text)
    rt_console_get_device                    0x0800b161   Thumb Code     6  kservice.o(.text)
    rt_console_set_device                    0x0800b167   Thumb Code    56  kservice.o(.text)
    rt_kputs                                 0x0800b19f   Thumb Code    48  kservice.o(.text)
    rt_malloc_sethook                        0x0800b1cf   Thumb Code     6  kservice.o(.text)
    rt_free_sethook                          0x0800b1d5   Thumb Code     6  kservice.o(.text)
    rt_system_heap_init                      0x0800b1db   Thumb Code    66  kservice.o(.text)
    rt_realloc                               0x0800b21d   Thumb Code   348  kservice.o(.text)
    rt_calloc                                0x0800b379   Thumb Code    34  kservice.o(.text)
    rt_free                                  0x0800b39b   Thumb Code    42  kservice.o(.text)
    rt_memory_info                           0x0800b3c5   Thumb Code    64  kservice.o(.text)
    rt_malloc_align                          0x0800b405   Thumb Code    70  kservice.o(.text)
    rt_free_align                            0x0800b44b   Thumb Code    16  kservice.o(.text)
    __rt_ffs                                 0x0800b45b   Thumb Code    70  kservice.o(.text)
    rt_assert_set_hook                       0x0800b4a1   Thumb Code     6  kservice.o(.text)
    rt_smem_init                             0x0800b563   Thumb Code   176  mem.o(.text)
    rt_smem_detach                           0x0800b613   Thumb Code    66  mem.o(.text)
    rt_smem_alloc                            0x0800b655   Thumb Code   450  mem.o(.text)
    rt_smem_free                             0x0800b817   Thumb Code   646  mem.o(.text)
    rt_smem_realloc                          0x0800ba9d   Thumb Code   348  mem.o(.text)
    rt_thread_idle_sethook                   0x0800bce5   Thumb Code    58  idle.o(.text)
    rt_thread_idle_delhook                   0x0800bd1f   Thumb Code    62  idle.o(.text)
    rt_thread_defunct_enqueue                0x0800bd5d   Thumb Code    24  idle.o(.text)
    rt_thread_defunct_dequeue                0x0800bd75   Thumb Code    56  idle.o(.text)
    rt_thread_idle_init                      0x0800be07   Thumb Code    74  idle.o(.text)
    rt_thread_idle_gethandler                0x0800be51   Thumb Code    10  idle.o(.text)
    rt_thread_suspend_sethook                0x0800be8b   Thumb Code     6  thread.o(.text)
    rt_thread_resume_sethook                 0x0800be91   Thumb Code     6  thread.o(.text)
    rt_thread_inited_sethook                 0x0800be97   Thumb Code     6  thread.o(.text)
    rt_thread_self                           0x0800be9d   Thumb Code     6  thread.o(.text)
    rt_thread_init                           0x0800bfd3   Thumb Code    78  thread.o(.text)
    rt_thread_resume                         0x0800c021   Thumb Code   122  thread.o(.text)
    rt_thread_startup                        0x0800c09b   Thumb Code   102  thread.o(.text)
    rt_thread_detach                         0x0800c101   Thumb Code   128  thread.o(.text)
    rt_thread_create                         0x0800c181   Thumb Code    80  thread.o(.text)
    rt_thread_delete                         0x0800c1d1   Thumb Code   128  thread.o(.text)
    rt_thread_yield                          0x0800c251   Thumb Code   404  thread.o(.text)
    rt_thread_suspend                        0x0800c3e5   Thumb Code   156  thread.o(.text)
    rt_thread_sleep                          0x0800c481   Thumb Code   106  thread.o(.text)
    rt_thread_delay                          0x0800c4eb   Thumb Code    12  thread.o(.text)
    rt_thread_delay_until                    0x0800c4f7   Thumb Code   164  thread.o(.text)
    rt_thread_mdelay                         0x0800c59b   Thumb Code    20  thread.o(.text)
    rt_thread_control                        0x0800c5af   Thumb Code   184  thread.o(.text)
    rt_thread_find                           0x0800c667   Thumb Code    14  thread.o(.text)
    DMA_DeInit                               0x0800c6b9   Thumb Code   428  n32g45x_dma.o(.text)
    DMA_Init                                 0x0800c865   Thumb Code    60  n32g45x_dma.o(.text)
    DMA_StructInit                           0x0800c8a1   Thumb Code    26  n32g45x_dma.o(.text)
    DMA_EnableChannel                        0x0800c8bb   Thumb Code    24  n32g45x_dma.o(.text)
    DMA_ConfigInt                            0x0800c8d3   Thumb Code    18  n32g45x_dma.o(.text)
    DMA_SetCurrDataCounter                   0x0800c8e5   Thumb Code     4  n32g45x_dma.o(.text)
    DMA_GetCurrDataCounter                   0x0800c8e9   Thumb Code     8  n32g45x_dma.o(.text)
    DMA_GetFlagStatus                        0x0800c8f1   Thumb Code    24  n32g45x_dma.o(.text)
    DMA_ClearFlag                            0x0800c909   Thumb Code     4  n32g45x_dma.o(.text)
    DMA_GetIntStatus                         0x0800c90d   Thumb Code    24  n32g45x_dma.o(.text)
    DMA_ClrIntPendingBit                     0x0800c925   Thumb Code     4  n32g45x_dma.o(.text)
    DMA_RequestRemap                         0x0800c929   Thumb Code    22  n32g45x_dma.o(.text)
    GPIO_DeInit                              0x0800c949   Thumb Code   172  n32g45x_gpio.o(.text)
    GPIO_AFIOInitDefault                     0x0800c9f5   Thumb Code    20  n32g45x_gpio.o(.text)
    GPIO_InitPeripheral                      0x0800ca09   Thumb Code   278  n32g45x_gpio.o(.text)
    GPIO_InitStruct                          0x0800cb1f   Thumb Code    16  n32g45x_gpio.o(.text)
    GPIO_ReadInputDataBit                    0x0800cb2f   Thumb Code    18  n32g45x_gpio.o(.text)
    GPIO_ReadInputData                       0x0800cb41   Thumb Code     8  n32g45x_gpio.o(.text)
    GPIO_ReadOutputDataBit                   0x0800cb49   Thumb Code    18  n32g45x_gpio.o(.text)
    GPIO_ReadOutputData                      0x0800cb5b   Thumb Code     8  n32g45x_gpio.o(.text)
    GPIO_SetBits                             0x0800cb63   Thumb Code     4  n32g45x_gpio.o(.text)
    GPIO_SetBitsHigh16                       0x0800cb67   Thumb Code     4  n32g45x_gpio.o(.text)
    GPIO_ResetBits                           0x0800cb6b   Thumb Code     4  n32g45x_gpio.o(.text)
    GPIO_WriteBit                            0x0800cb6f   Thumb Code    10  n32g45x_gpio.o(.text)
    GPIO_Write                               0x0800cb79   Thumb Code     4  n32g45x_gpio.o(.text)
    GPIO_ConfigPinLock                       0x0800cb7d   Thumb Code    18  n32g45x_gpio.o(.text)
    GPIO_ConfigEventOutput                   0x0800cb8f   Thumb Code    26  n32g45x_gpio.o(.text)
    GPIO_CtrlEventOutput                     0x0800cba9   Thumb Code     6  n32g45x_gpio.o(.text)
    GPIO_ConfigPinRemap                      0x0800cbaf   Thumb Code   624  n32g45x_gpio.o(.text)
    GPIO_ConfigEXTILine                      0x0800ce1f   Thumb Code    66  n32g45x_gpio.o(.text)
    GPIO_ETH_ConfigMediaInterface            0x0800ce61   Thumb Code    22  n32g45x_gpio.o(.text)
    USART_DeInit                             0x0800ce7d   Thumb Code   186  n32g45x_usart.o(.text)
    USART_Init                               0x0800cf37   Thumb Code   168  n32g45x_usart.o(.text)
    USART_StructInit                         0x0800cfdf   Thumb Code    24  n32g45x_usart.o(.text)
    USART_ClockInit                          0x0800cff7   Thumb Code    34  n32g45x_usart.o(.text)
    USART_ClockStructInit                    0x0800d019   Thumb Code    12  n32g45x_usart.o(.text)
    USART_Enable                             0x0800d025   Thumb Code    24  n32g45x_usart.o(.text)
    USART_ConfigInt                          0x0800d03d   Thumb Code    74  n32g45x_usart.o(.text)
    USART_EnableDMA                          0x0800d087   Thumb Code    18  n32g45x_usart.o(.text)
    USART_SetAddr                            0x0800d099   Thumb Code    18  n32g45x_usart.o(.text)
    USART_ConfigWakeUpMode                   0x0800d0ab   Thumb Code    18  n32g45x_usart.o(.text)
    USART_EnableRcvWakeUp                    0x0800d0bd   Thumb Code    24  n32g45x_usart.o(.text)
    USART_ConfigLINBreakDetectLength         0x0800d0d5   Thumb Code    18  n32g45x_usart.o(.text)
    USART_EnableLIN                          0x0800d0e7   Thumb Code    24  n32g45x_usart.o(.text)
    USART_SendData                           0x0800d0ff   Thumb Code     8  n32g45x_usart.o(.text)
    USART_ReceiveData                        0x0800d107   Thumb Code    10  n32g45x_usart.o(.text)
    USART_SendBreak                          0x0800d111   Thumb Code    10  n32g45x_usart.o(.text)
    USART_SetGuardTime                       0x0800d11b   Thumb Code    16  n32g45x_usart.o(.text)
    USART_SetPrescaler                       0x0800d12b   Thumb Code    16  n32g45x_usart.o(.text)
    USART_EnableSmartCard                    0x0800d13b   Thumb Code    24  n32g45x_usart.o(.text)
    USART_SetSmartCardNACK                   0x0800d153   Thumb Code    24  n32g45x_usart.o(.text)
    USART_EnableHalfDuplex                   0x0800d16b   Thumb Code    24  n32g45x_usart.o(.text)
    USART_ConfigIrDAMode                     0x0800d183   Thumb Code    18  n32g45x_usart.o(.text)
    USART_EnableIrDA                         0x0800d195   Thumb Code    24  n32g45x_usart.o(.text)
    USART_GetFlagStatus                      0x0800d1ad   Thumb Code    26  n32g45x_usart.o(.text)
    USART_ClrFlag                            0x0800d1c7   Thumb Code    18  n32g45x_usart.o(.text)
    USART_GetIntStatus                       0x0800d1d9   Thumb Code    84  n32g45x_usart.o(.text)
    USART_ClrIntPendingBit                   0x0800d22d   Thumb Code    30  n32g45x_usart.o(.text)
    EXTI_DeInit                              0x0800d269   Thumb Code    28  n32g45x_exti.o(.text)
    EXTI_InitPeripheral                      0x0800d285   Thumb Code   142  n32g45x_exti.o(.text)
    EXTI_InitStruct                          0x0800d313   Thumb Code    16  n32g45x_exti.o(.text)
    EXTI_TriggerSWInt                        0x0800d323   Thumb Code    16  n32g45x_exti.o(.text)
    EXTI_GetStatusFlag                       0x0800d333   Thumb Code    22  n32g45x_exti.o(.text)
    EXTI_ClrStatusFlag                       0x0800d349   Thumb Code     8  n32g45x_exti.o(.text)
    EXTI_GetITStatus                         0x0800d351   Thumb Code    34  n32g45x_exti.o(.text)
    EXTI_ClrITPendBit                        0x0800d373   Thumb Code     8  n32g45x_exti.o(.text)
    EXTI_RTCTimeStampSel                     0x0800d37b   Thumb Code    26  n32g45x_exti.o(.text)
    ADC_DeInit                               0x0800d39d   Thumb Code   106  n32g45x_adc.o(.text)
    ADC_Init                                 0x0800d407   Thumb Code    70  n32g45x_adc.o(.text)
    ADC_InitStruct                           0x0800d44d   Thumb Code    18  n32g45x_adc.o(.text)
    ADC_Enable                               0x0800d45f   Thumb Code    22  n32g45x_adc.o(.text)
    ADC_EnableDMA                            0x0800d475   Thumb Code    22  n32g45x_adc.o(.text)
    ADC_ConfigInt                            0x0800d48b   Thumb Code    24  n32g45x_adc.o(.text)
    ADC_StartCalibration                     0x0800d4a3   Thumb Code    10  n32g45x_adc.o(.text)
    ADC_GetCalibrationStatus                 0x0800d4ad   Thumb Code    20  n32g45x_adc.o(.text)
    ADC_EnableSoftwareStartConv              0x0800d4c1   Thumb Code    22  n32g45x_adc.o(.text)
    ADC_GetSoftwareStartConvStatus           0x0800d4d7   Thumb Code    20  n32g45x_adc.o(.text)
    ADC_ConfigDiscModeChannelCount           0x0800d4eb   Thumb Code    24  n32g45x_adc.o(.text)
    ADC_EnableDiscMode                       0x0800d503   Thumb Code    22  n32g45x_adc.o(.text)
    ADC_ConfigRegularChannel                 0x0800d519   Thumb Code   200  n32g45x_adc.o(.text)
    ADC_EnableExternalTrigConv               0x0800d5e1   Thumb Code    22  n32g45x_adc.o(.text)
    ADC_GetDat                               0x0800d5f7   Thumb Code     8  n32g45x_adc.o(.text)
    ADC_GetDualModeConversionDat             0x0800d5ff   Thumb Code    46  n32g45x_adc.o(.text)
    ADC_EnableAutoInjectedConv               0x0800d62d   Thumb Code    22  n32g45x_adc.o(.text)
    ADC_EnableInjectedDiscMode               0x0800d643   Thumb Code    22  n32g45x_adc.o(.text)
    ADC_ConfigExternalTrigInjectedConv       0x0800d659   Thumb Code    16  n32g45x_adc.o(.text)
    ADC_EnableExternalTrigInjectedConv       0x0800d669   Thumb Code    22  n32g45x_adc.o(.text)
    ADC_EnableSoftwareStartInjectedConv      0x0800d67f   Thumb Code    22  n32g45x_adc.o(.text)
    ADC_GetSoftwareStartInjectedConvCmdStatus 0x0800d695   Thumb Code    20  n32g45x_adc.o(.text)
    ADC_ConfigInjectedChannel                0x0800d6a9   Thumb Code   146  n32g45x_adc.o(.text)
    ADC_ConfigInjectedSequencerLength        0x0800d73b   Thumb Code    24  n32g45x_adc.o(.text)
    ADC_SetInjectedOffsetDat                 0x0800d753   Thumb Code    20  n32g45x_adc.o(.text)
    ADC_GetInjectedConversionDat             0x0800d767   Thumb Code    54  n32g45x_adc.o(.text)
    ADC_ConfigAnalogWatchdogWorkChannelType  0x0800d79d   Thumb Code    16  n32g45x_adc.o(.text)
    ADC_ConfigAnalogWatchdogThresholds       0x0800d7ad   Thumb Code     6  n32g45x_adc.o(.text)
    ADC_ConfigAnalogWatchdogSingleChannel    0x0800d7b3   Thumb Code    16  n32g45x_adc.o(.text)
    ADC_EnableTempSensorVrefint              0x0800d7c3   Thumb Code    60  n32g45x_adc.o(.text)
    ADC_GetFlagStatus                        0x0800d7ff   Thumb Code    18  n32g45x_adc.o(.text)
    ADC_ClearFlag                            0x0800d811   Thumb Code     8  n32g45x_adc.o(.text)
    ADC_GetIntStatus                         0x0800d819   Thumb Code    36  n32g45x_adc.o(.text)
    ADC_ClearIntPendingBit                   0x0800d83d   Thumb Code    12  n32g45x_adc.o(.text)
    ADC_InitEx                               0x0800d849   Thumb Code   170  n32g45x_adc.o(.text)
    ADC_SetDifChsEnable                      0x0800d8f3   Thumb Code     4  n32g45x_adc.o(.text)
    ADC_GetFlagStatusNew                     0x0800d8f7   Thumb Code    18  n32g45x_adc.o(.text)
    ADC_SetBypassCalibration                 0x0800d909   Thumb Code    22  n32g45x_adc.o(.text)
    ADC_SetConvResultBitNum                  0x0800d91f   Thumb Code    16  n32g45x_adc.o(.text)
    ADC_ConfigClk                            0x0800d92f   Thumb Code    42  n32g45x_adc.o(.text)
    RCC_DeInit                               0x0800d965   Thumb Code    74  n32g45x_rcc.o(.text)
    RCC_ConfigHse                            0x0800d9af   Thumb Code    70  n32g45x_rcc.o(.text)
    RCC_GetFlagStatus                        0x0800d9f5   Thumb Code    56  n32g45x_rcc.o(.text)
    RCC_WaitHseStable                        0x0800da2d   Thumb Code    56  n32g45x_rcc.o(.text)
    RCC_SetHsiCalibValue                     0x0800da65   Thumb Code    20  n32g45x_rcc.o(.text)
    RCC_EnableHsi                            0x0800da79   Thumb Code     6  n32g45x_rcc.o(.text)
    RCC_ConfigPll                            0x0800da7f   Thumb Code    24  n32g45x_rcc.o(.text)
    RCC_EnablePll                            0x0800da97   Thumb Code     6  n32g45x_rcc.o(.text)
    RCC_ConfigSysclk                         0x0800da9d   Thumb Code    18  n32g45x_rcc.o(.text)
    RCC_GetSysclkSrc                         0x0800daaf   Thumb Code    10  n32g45x_rcc.o(.text)
    RCC_ConfigHclk                           0x0800dab9   Thumb Code    18  n32g45x_rcc.o(.text)
    RCC_ConfigPclk1                          0x0800dacb   Thumb Code    18  n32g45x_rcc.o(.text)
    RCC_ConfigPclk2                          0x0800dadd   Thumb Code    20  n32g45x_rcc.o(.text)
    RCC_ConfigInt                            0x0800daf1   Thumb Code    26  n32g45x_rcc.o(.text)
    RCC_ConfigUsbClk                         0x0800db0b   Thumb Code    16  n32g45x_rcc.o(.text)
    RCC_ConfigTim18Clk                       0x0800db1b   Thumb Code    18  n32g45x_rcc.o(.text)
    RCC_ConfigRngcClk                        0x0800db2d   Thumb Code    18  n32g45x_rcc.o(.text)
    RCC_ConfigEthClk                         0x0800db3f   Thumb Code    18  n32g45x_rcc.o(.text)
    RCC_ConfigAdc1mClk                       0x0800db51   Thumb Code    24  n32g45x_rcc.o(.text)
    RCC_ConfigAdcPllClk                      0x0800db69   Thumb Code    30  n32g45x_rcc.o(.text)
    RCC_ConfigAdcHclk                        0x0800db87   Thumb Code    18  n32g45x_rcc.o(.text)
    RCC_ConfigTrng1mClk                      0x0800db99   Thumb Code    24  n32g45x_rcc.o(.text)
    RCC_EnableTrng1mClk                      0x0800dbb1   Thumb Code    30  n32g45x_rcc.o(.text)
    RCC_ConfigLse                            0x0800dbcf   Thumb Code    50  n32g45x_rcc.o(.text)
    RCC_EnableLsi                            0x0800dc01   Thumb Code     6  n32g45x_rcc.o(.text)
    RCC_ConfigRtcClk                         0x0800dc07   Thumb Code    22  n32g45x_rcc.o(.text)
    RCC_EnableRtcClk                         0x0800dc1d   Thumb Code     8  n32g45x_rcc.o(.text)
    RCC_GetClocksFreqValue                   0x0800dc25   Thumb Code   240  n32g45x_rcc.o(.text)
    RCC_EnableAHBPeriphClk                   0x0800dd15   Thumb Code    26  n32g45x_rcc.o(.text)
    RCC_EnableAPB2PeriphClk                  0x0800dd2f   Thumb Code    78  n32g45x_rcc.o(.text)
    RCC_EnableAPB1PeriphClk                  0x0800dd7d   Thumb Code    26  n32g45x_rcc.o(.text)
    RCC_EnableAHBPeriphReset                 0x0800dd97   Thumb Code    26  n32g45x_rcc.o(.text)
    RCC_EnableAPB2PeriphReset                0x0800ddb1   Thumb Code    26  n32g45x_rcc.o(.text)
    RCC_EnableAPB1PeriphReset                0x0800ddcb   Thumb Code    26  n32g45x_rcc.o(.text)
    RCC_EnableBORReset                       0x0800dde5   Thumb Code    30  n32g45x_rcc.o(.text)
    RCC_EnableBackupReset                    0x0800de03   Thumb Code     6  n32g45x_rcc.o(.text)
    RCC_EnableClockSecuritySystem            0x0800de09   Thumb Code     6  n32g45x_rcc.o(.text)
    RCC_ConfigMcoPllClk                      0x0800de0f   Thumb Code    18  n32g45x_rcc.o(.text)
    RCC_ConfigMco                            0x0800de21   Thumb Code    20  n32g45x_rcc.o(.text)
    RCC_ClrFlag                              0x0800de35   Thumb Code    24  n32g45x_rcc.o(.text)
    RCC_GetIntStatus                         0x0800de4d   Thumb Code    20  n32g45x_rcc.o(.text)
    RCC_ClrIntPendingBit                     0x0800de61   Thumb Code     6  n32g45x_rcc.o(.text)
    NVIC_PriorityGroupConfig                 0x0800de75   Thumb Code    10  misc.o(.text)
    NVIC_Init                                0x0800de7f   Thumb Code   100  misc.o(.text)
    NVIC_SetVectorTable                      0x0800dee3   Thumb Code    14  misc.o(.text)
    NVIC_SystemLPConfig                      0x0800def1   Thumb Code    34  misc.o(.text)
    SysTick_CLKSourceConfig                  0x0800df13   Thumb Code    22  misc.o(.text)
    SystemInit                               0x0800e005   Thumb Code   146  system_n32g45x.o(.text)
    SystemCoreClockUpdate                    0x0800e097   Thumb Code   162  system_n32g45x.o(.text)
    __semihosting$guard                      0x0800e171   Thumb Code     0  use_no_semi.o(.text)
    __use_no_semihosting_swi                 0x0800e171   Thumb Code     2  use_no_semi.o(.text)
    __2sprintf                               0x0800e175   Thumb Code    34  noretval__2sprintf.o(.text)
    _printf_pre_padding                      0x0800e19d   Thumb Code    44  _printf_pad.o(.text)
    _printf_post_padding                     0x0800e1c9   Thumb Code    34  _printf_pad.o(.text)
    _printf_int_dec                          0x0800e1ed   Thumb Code   104  _printf_dec.o(.text)
    __printf                                 0x0800e265   Thumb Code   308  __printf_flags_wp.o(.text)
    atoi                                     0x0800e39d   Thumb Code    26  atoi.o(.text)
    strstr                                   0x0800e3b7   Thumb Code    36  strstr.o(.text)
    memcmp                                   0x0800e3db   Thumb Code    88  memcmp.o(.text)
    strcpy                                   0x0800e433   Thumb Code    72  strcpy.o(.text)
    strlen                                   0x0800e47b   Thumb Code    62  strlen.o(.text)
    strncmp                                  0x0800e4b9   Thumb Code   150  strncmp.o(.text)
    strcat                                   0x0800e54f   Thumb Code    24  strcat.o(.text)
    __aeabi_memcpy4                          0x0800e567   Thumb Code     0  rt_memcpy_w.o(.text)
    __aeabi_memcpy8                          0x0800e567   Thumb Code     0  rt_memcpy_w.o(.text)
    __rt_memcpy_w                            0x0800e567   Thumb Code   100  rt_memcpy_w.o(.text)
    _memcpy_lastbytes_aligned                0x0800e5af   Thumb Code     0  rt_memcpy_w.o(.text)
    __aeabi_memclr4                          0x0800e5cb   Thumb Code     0  rt_memclr_w.o(.text)
    __aeabi_memclr8                          0x0800e5cb   Thumb Code     0  rt_memclr_w.o(.text)
    __rt_memclr_w                            0x0800e5cb   Thumb Code    78  rt_memclr_w.o(.text)
    _memset_w                                0x0800e5cf   Thumb Code     0  rt_memclr_w.o(.text)
    strncpy                                  0x0800e619   Thumb Code    86  strncpy.o(.text)
    strcmp                                   0x0800e671   Thumb Code   128  strcmpv7m.o(.text)
    __use_two_region_memory                  0x0800e6f1   Thumb Code     2  heapauxi.o(.text)
    __rt_heap_escrow$2region                 0x0800e6f3   Thumb Code     2  heapauxi.o(.text)
    __rt_heap_expand$2region                 0x0800e6f5   Thumb Code     2  heapauxi.o(.text)
    __aeabi_errno_addr                       0x0800e6f9   Thumb Code     8  rt_errno_addr_intlibspace.o(.text)
    __errno$intlibspace                      0x0800e6f9   Thumb Code     0  rt_errno_addr_intlibspace.o(.text)
    __rt_errno_addr$intlibspace              0x0800e6f9   Thumb Code     0  rt_errno_addr_intlibspace.o(.text)
    _printf_int_common                       0x0800e701   Thumb Code   178  _printf_intcommon.o(.text)
    _printf_char_common                      0x0800e7bf   Thumb Code    32  _printf_char_common.o(.text)
    _sputc                                   0x0800e7e5   Thumb Code    10  _sputc.o(.text)
    strtol                                   0x0800e7ef   Thumb Code   112  strtol.o(.text)
    __aeabi_memclr                           0x0800e85f   Thumb Code     0  rt_memclr.o(.text)
    __rt_memclr                              0x0800e85f   Thumb Code    68  rt_memclr.o(.text)
    _memset                                  0x0800e863   Thumb Code     0  rt_memclr.o(.text)
    __user_libspace                          0x0800e8a5   Thumb Code     8  libspace.o(.text)
    __user_perproc_libspace                  0x0800e8a5   Thumb Code     0  libspace.o(.text)
    __user_perthread_libspace                0x0800e8a5   Thumb Code     0  libspace.o(.text)
    __rt_ctype_table                         0x0800e8ad   Thumb Code    16  rt_ctype_table.o(.text)
    _strtoul                                 0x0800e8bd   Thumb Code   158  _strtoul.o(.text)
    __user_setup_stackheap                   0x0800e95b   Thumb Code    74  sys_stackheap_outer.o(.text)
    __rt_locale                              0x0800e9a5   Thumb Code     8  rt_locale_intlibspace.o(.text)
    _chval                                   0x0800e9ad   Thumb Code    28  _chval.o(.text)
    exit                                     0x0800e9c9   Thumb Code    18  exit.o(.text)
    _is_digit                                0x0800e9db   Thumb Code    14  __printf_wp.o(i._is_digit)
    _get_lc_ctype                            0x0800e9e9   Thumb Code    44  lc_ctype_c.o(locale$$code)
    __fpl_dcmp_Inf                           0x0800ea15   Thumb Code    24  dcmpi.o(x$fpl$dcmpinf)
    __aeabi_ui2d                             0x0800ea2d   Thumb Code     0  dflt_clz.o(x$fpl$dfltu)
    _dfltu                                   0x0800ea2d   Thumb Code    38  dflt_clz.o(x$fpl$dfltu)
    __aeabi_cdcmple                          0x0800ea55   Thumb Code     0  dleqf.o(x$fpl$dleqf)
    _dcmple                                  0x0800ea55   Thumb Code   120  dleqf.o(x$fpl$dleqf)
    __fpl_dcmple_InfNaN                      0x0800eab7   Thumb Code     0  dleqf.o(x$fpl$dleqf)
    __fpl_dnaninf                            0x0800eacd   Thumb Code   156  dnaninf.o(x$fpl$dnaninf)
    __aeabi_cdrcmple                         0x0800eb69   Thumb Code     0  drleqf.o(x$fpl$drleqf)
    _drcmple                                 0x0800eb69   Thumb Code   108  drleqf.o(x$fpl$drleqf)
    _fp_init                                 0x0800ebd5   Thumb Code    10  fpinit.o(x$fpl$fpinit)
    __fplib_config_fpu_vfp                   0x0800ebdd   Thumb Code     0  fpinit.o(x$fpl$fpinit)
    __fplib_config_pureend_doubles           0x0800ebdd   Thumb Code     0  fpinit.o(x$fpl$fpinit)
    __I$use$fp                               0x0800ebde   Number         0  usenofp.o(x$fpl$usenofp)
    asc2_0806                                0x0800ebde   Data         552  oled.o(.constdata)
    asc2_1206                                0x0800ee06   Data        1140  oled.o(.constdata)
    asc2_1608                                0x0800f27a   Data        1520  oled.o(.constdata)
    asc2_2412                                0x0800f86a   Data        3420  oled.o(.constdata)
    Hzk1                                     0x080105c6   Data         128  oled.o(.constdata)
    Hzk2                                     0x08010646   Data          72  oled.o(.constdata)
    Hzk3                                     0x0801068e   Data         128  oled.o(.constdata)
    Hzk4                                     0x0801070e   Data         512  oled.o(.constdata)
    __stdin_name                             0x08010919   Data           6  syscalls.o(.constdata)
    __stdout_name                            0x0801091f   Data           7  syscalls.o(.constdata)
    __stderr_name                            0x08010926   Data           7  syscalls.o(.constdata)
    __lowest_bit_bitmap                      0x08011cff   Data         256  kservice.o(.constdata)
    AHBPrescTable                            0x08011f82   Data          16  system_n32g45x.o(.constdata)
    __fsym_led_test_name                     0x0801278a   Data           9  oled.o(.rodata.name)
    __fsym_led_test_desc                     0x08012793   Data           9  oled.o(.rodata.name)
    __fsym_adc_name                          0x0801279c   Data           4  adc.o(.rodata.name)
    __fsym_adc_desc                          0x080127a0   Data          13  adc.o(.rodata.name)
    __fsym_uart_test_name                    0x080127ad   Data          10  n32_msp.o(.rodata.name)
    __fsym_uart_test_desc                    0x080127b7   Data          10  n32_msp.o(.rodata.name)
    __fsym_adc_vol_sample_name               0x080127c1   Data          15  n32_msp.o(.rodata.name)
    __fsym_adc_vol_sample_desc               0x080127d0   Data          27  n32_msp.o(.rodata.name)
    __fsym_reboot_name                       0x080127eb   Data           7  drv_common.o(.rodata.name)
    __fsym_reboot_desc                       0x080127f2   Data          14  drv_common.o(.rodata.name)
    __fsym_help_name                         0x08012800   Data           5  msh.o(.rodata.name)
    __fsym_help_desc                         0x08012805   Data          24  msh.o(.rodata.name)
    __fsym_ps_name                           0x0801281d   Data           3  msh.o(.rodata.name)
    __fsym_ps_desc                           0x08012820   Data          28  msh.o(.rodata.name)
    __fsym_free_name                         0x0801283c   Data           5  msh.o(.rodata.name)
    __fsym_free_desc                         0x08012841   Data          37  msh.o(.rodata.name)
    __fsym_hello_name                        0x08012866   Data           6  cmd.o(.rodata.name)
    __fsym_hello_desc                        0x0801286c   Data          16  cmd.o(.rodata.name)
    __fsym_clear_name                        0x0801287c   Data           6  cmd.o(.rodata.name)
    __fsym_clear_desc                        0x08012882   Data          26  cmd.o(.rodata.name)
    __fsym_version_name                      0x0801289c   Data           8  cmd.o(.rodata.name)
    __fsym_version_desc                      0x080128a4   Data          37  cmd.o(.rodata.name)
    __fsym_list_thread_name                  0x080128c9   Data          12  cmd.o(.rodata.name)
    __fsym_list_thread_desc                  0x080128d5   Data          12  cmd.o(.rodata.name)
    __fsym_list_sem_name                     0x080128e1   Data           9  cmd.o(.rodata.name)
    __fsym_list_sem_desc                     0x080128ea   Data          25  cmd.o(.rodata.name)
    __fsym_list_event_name                   0x08012903   Data          11  cmd.o(.rodata.name)
    __fsym_list_event_desc                   0x0801290e   Data          21  cmd.o(.rodata.name)
    __fsym_list_mutex_name                   0x08012923   Data          11  cmd.o(.rodata.name)
    __fsym_list_mutex_desc                   0x0801292e   Data          21  cmd.o(.rodata.name)
    __fsym_list_mailbox_name                 0x08012943   Data          13  cmd.o(.rodata.name)
    __fsym_list_mailbox_desc                 0x08012950   Data          24  cmd.o(.rodata.name)
    __fsym_list_msgqueue_name                0x08012968   Data          14  cmd.o(.rodata.name)
    __fsym_list_msgqueue_desc                0x08012976   Data          29  cmd.o(.rodata.name)
    __fsym_list_mempool_name                 0x08012993   Data          13  cmd.o(.rodata.name)
    __fsym_list_mempool_desc                 0x080129a0   Data          27  cmd.o(.rodata.name)
    __fsym_list_timer_name                   0x080129bb   Data          11  cmd.o(.rodata.name)
    __fsym_list_timer_desc                   0x080129c6   Data          21  cmd.o(.rodata.name)
    __fsym_list_device_name                  0x080129db   Data          12  cmd.o(.rodata.name)
    __fsym_list_device_desc                  0x080129e7   Data          22  cmd.o(.rodata.name)
    __fsym_list_name                         0x080129fd   Data           5  cmd.o(.rodata.name)
    __fsym_list_desc                         0x08012a02   Data          28  cmd.o(.rodata.name)
    __rt_init_rti_start                      0x08012a20   Data           4  components.o(.rti_fn.0)
    __rt_init_rti_board_start                0x08012a24   Data           4  components.o(.rti_fn.0.end)
    __rt_init_rt_hw_i2c_init                 0x08012a28   Data           4  drv_soft_i2c.o(.rti_fn.1)
    __rt_init_rt_hw_adc_init                 0x08012a2c   Data           4  drv_adc.o(.rti_fn.1)
    __rt_init_rti_board_end                  0x08012a30   Data           4  components.o(.rti_fn.1.end)
    __rt_init_rt_i2c_core_init               0x08012a34   Data           4  i2c_core.o(.rti_fn.4)
    __rt_init_finsh_system_init              0x08012a38   Data           4  shell.o(.rti_fn.6)
    __rt_init_rti_end                        0x08012a3c   Data           4  components.o(.rti_fn.6.end)
    FSymTab$$Base                            0x08012a40   Number         0  oled.o(FSymTab)
    __fsym_led_test                          0x08012a40   Data          12  oled.o(FSymTab)
    __fsym_adc                               0x08012a4c   Data          12  adc.o(FSymTab)
    __fsym_uart_test                         0x08012a58   Data          12  n32_msp.o(FSymTab)
    __fsym_adc_vol_sample                    0x08012a64   Data          12  n32_msp.o(FSymTab)
    __fsym_reboot                            0x08012a70   Data          12  drv_common.o(FSymTab)
    __fsym_help                              0x08012a7c   Data          12  msh.o(FSymTab)
    __fsym_ps                                0x08012a88   Data          12  msh.o(FSymTab)
    __fsym_free                              0x08012a94   Data          12  msh.o(FSymTab)
    __fsym_hello                             0x08012aa0   Data          12  cmd.o(FSymTab)
    __fsym_clear                             0x08012aac   Data          12  cmd.o(FSymTab)
    __fsym_version                           0x08012ab8   Data          12  cmd.o(FSymTab)
    __fsym_list_thread                       0x08012ac4   Data          12  cmd.o(FSymTab)
    __fsym_list_sem                          0x08012ad0   Data          12  cmd.o(FSymTab)
    __fsym_list_event                        0x08012adc   Data          12  cmd.o(FSymTab)
    __fsym_list_mutex                        0x08012ae8   Data          12  cmd.o(FSymTab)
    __fsym_list_mailbox                      0x08012af4   Data          12  cmd.o(FSymTab)
    __fsym_list_msgqueue                     0x08012b00   Data          12  cmd.o(FSymTab)
    __fsym_list_mempool                      0x08012b0c   Data          12  cmd.o(FSymTab)
    __fsym_list_timer                        0x08012b18   Data          12  cmd.o(FSymTab)
    __fsym_list_device                       0x08012b24   Data          12  cmd.o(FSymTab)
    __fsym_list                              0x08012b30   Data          12  cmd.o(FSymTab)
    FSymTab$$Limit                           0x08012b3c   Number         0  cmd.o(FSymTab)
    Region$$Table$$Base                      0x08012b3c   Number         0  anon$$obj.o(Region$$Table)
    Region$$Table$$Limit                     0x08012b5c   Number         0  anon$$obj.o(Region$$Table)
    __ctype                                  0x08012b69   Data           0  lc_ctype_c.o(locale$$data)
    adc_dev                                  0x20000008   Data           4  mq3.o(.data)
    rt_interrupt_from_thread                 0x20000018   Data           4  cpuport.o(.data)
    rt_interrupt_to_thread                   0x2000001c   Data           4  cpuport.o(.data)
    rt_thread_switch_interrupt_flag          0x20000020   Data           4  cpuport.o(.data)
    pin_irq_hdr_tab                          0x20000034   Data         192  drv_gpio.o(.data)
    uart1                                    0x20000140   Data          32  drv_usart.o(.data)
    uart2                                    0x20000160   Data          32  drv_usart.o(.data)
    _syscall_table_begin                     0x20000180   Data           4  shell.o(.data)
    _syscall_table_end                       0x20000184   Data           4  shell.o(.data)
    shell                                    0x20000188   Data           4  shell.o(.data)
    rt_thread_ready_priority_group           0x200001b4   Data           4  scheduler.o(.data)
    rt_current_thread                        0x200001bc   Data           4  scheduler.o(.data)
    rt_current_priority                      0x200001c0   Data           1  scheduler.o(.data)
    rt_object_trytake_hook                   0x20000274   Data           4  object.o(.data)
    rt_object_take_hook                      0x20000278   Data           4  object.o(.data)
    rt_object_put_hook                       0x2000027c   Data           4  object.o(.data)
    rt_interrupt_nest                        0x20000288   Data           1  irq.o(.data)
    rt_assert_hook                           0x200002a0   Data           4  kservice.o(.data)
    SystemCoreClock                          0x200002b8   Data           4  system_n32g45x.o(.data)
    OLED_GRAM                                0x200002bc   Data        1152  oled.o(.bss)
    struct_usart2                            0x2000073c   Data          88  uart.o(.bss)
    serial1                                  0x20000890   Data          84  drv_usart.o(.bss)
    serial2                                  0x200008e4   Data          84  drv_usart.o(.bss)
    rt_thread_priority_table                 0x20000c3c   Data         256  scheduler.o(.bss)
    __libspace_start                         0x20000f70   Data          96  libspace.o(.bss)
    __temporary_stack_top$libspace           0x20000fd0   Data           0  libspace.o(.bss)
    Image$$RW_IRAM1$$ZI$$Limit               0x200015d0   Number         0  anon$$obj.o ABSOLUTE



==============================================================================

Memory Map of the image

  Image Entry point : 0x08000199

  Load Region LR_IROM1 (Base: 0x08000000, Size: 0x00012f28, Max: 0x00040000, ABSOLUTE, COMPRESSED[0x00012d04])

    Execution Region ER_IROM1 (Exec base: 0x08000000, Load base: 0x08000000, Size: 0x00012c6c, Max: 0x00040000, ABSOLUTE)

    Exec Addr    Load Addr    Size         Type   Attr      Idx    E Section Name        Object

    0x08000000   0x08000000   0x00000198   Data   RO          824    RESET               startup_n32g45x.o
    0x08000198   0x08000198   0x00000008   Code   RO         2122  * !!!main             c_w.l(__main.o)
    0x080001a0   0x080001a0   0x00000034   Code   RO         2321    !!!scatter          c_w.l(__scatter.o)
    0x080001d4   0x080001d4   0x0000005a   Code   RO         2319    !!dczerorl2         c_w.l(__dczerorl2.o)
    0x0800022e   0x0800022e   0x00000002   PAD
    0x08000230   0x08000230   0x0000001c   Code   RO         2323    !!handler_zi        c_w.l(__scatter_zi.o)
    0x0800024c   0x0800024c   0x00000000   Code   RO         2097    .ARM.Collect$$_printf_percent$$00000000  c_w.l(_printf_percent.o)
    0x0800024c   0x0800024c   0x00000006   Code   RO         2096    .ARM.Collect$$_printf_percent$$00000009  c_w.l(_printf_d.o)
    0x08000252   0x08000252   0x00000004   Code   RO         2144    .ARM.Collect$$_printf_percent$$00000017  c_w.l(_printf_percent_end.o)
    0x08000256   0x08000256   0x00000002   Code   RO         2199    .ARM.Collect$$libinit$$00000000  c_w.l(libinit.o)
    0x08000258   0x08000258   0x00000004   Code   RO         2202    .ARM.Collect$$libinit$$00000001  c_w.l(libinit2.o)
    0x0800025c   0x0800025c   0x00000000   Code   RO         2205    .ARM.Collect$$libinit$$00000004  c_w.l(libinit2.o)
    0x0800025c   0x0800025c   0x00000000   Code   RO         2208    .ARM.Collect$$libinit$$0000000A  c_w.l(libinit2.o)
    0x0800025c   0x0800025c   0x00000000   Code   RO         2210    .ARM.Collect$$libinit$$0000000C  c_w.l(libinit2.o)
    0x0800025c   0x0800025c   0x00000000   Code   RO         2212    .ARM.Collect$$libinit$$0000000E  c_w.l(libinit2.o)
    0x0800025c   0x0800025c   0x00000006   Code   RO         2213    .ARM.Collect$$libinit$$0000000F  c_w.l(libinit2.o)
    0x08000262   0x08000262   0x00000000   Code   RO         2215    .ARM.Collect$$libinit$$00000011  c_w.l(libinit2.o)
    0x08000262   0x08000262   0x0000000c   Code   RO         2216    .ARM.Collect$$libinit$$00000012  c_w.l(libinit2.o)
    0x0800026e   0x0800026e   0x00000000   Code   RO         2217    .ARM.Collect$$libinit$$00000013  c_w.l(libinit2.o)
    0x0800026e   0x0800026e   0x00000000   Code   RO         2219    .ARM.Collect$$libinit$$00000015  c_w.l(libinit2.o)
    0x0800026e   0x0800026e   0x00000000   Code   RO         2221    .ARM.Collect$$libinit$$00000017  c_w.l(libinit2.o)
    0x0800026e   0x0800026e   0x00000000   Code   RO         2223    .ARM.Collect$$libinit$$00000019  c_w.l(libinit2.o)
    0x0800026e   0x0800026e   0x00000000   Code   RO         2225    .ARM.Collect$$libinit$$0000001B  c_w.l(libinit2.o)
    0x0800026e   0x0800026e   0x00000000   Code   RO         2227    .ARM.Collect$$libinit$$0000001D  c_w.l(libinit2.o)
    0x0800026e   0x0800026e   0x00000000   Code   RO         2229    .ARM.Collect$$libinit$$0000001F  c_w.l(libinit2.o)
    0x0800026e   0x0800026e   0x00000000   Code   RO         2231    .ARM.Collect$$libinit$$00000021  c_w.l(libinit2.o)
    0x0800026e   0x0800026e   0x00000000   Code   RO         2233    .ARM.Collect$$libinit$$00000023  c_w.l(libinit2.o)
    0x0800026e   0x0800026e   0x00000000   Code   RO         2235    .ARM.Collect$$libinit$$00000025  c_w.l(libinit2.o)
    0x0800026e   0x0800026e   0x00000000   Code   RO         2239    .ARM.Collect$$libinit$$0000002C  c_w.l(libinit2.o)
    0x0800026e   0x0800026e   0x00000000   Code   RO         2241    .ARM.Collect$$libinit$$0000002E  c_w.l(libinit2.o)
    0x0800026e   0x0800026e   0x00000000   Code   RO         2243    .ARM.Collect$$libinit$$00000030  c_w.l(libinit2.o)
    0x0800026e   0x0800026e   0x00000000   Code   RO         2245    .ARM.Collect$$libinit$$00000032  c_w.l(libinit2.o)
    0x0800026e   0x0800026e   0x00000002   Code   RO         2246    .ARM.Collect$$libinit$$00000033  c_w.l(libinit2.o)
    0x08000270   0x08000270   0x00000002   Code   RO         2264    .ARM.Collect$$libshutdown$$00000000  c_w.l(libshutdown.o)
    0x08000272   0x08000272   0x00000000   Code   RO         2272    .ARM.Collect$$libshutdown$$00000002  c_w.l(libshutdown2.o)
    0x08000272   0x08000272   0x00000000   Code   RO         2274    .ARM.Collect$$libshutdown$$00000004  c_w.l(libshutdown2.o)
    0x08000272   0x08000272   0x00000000   Code   RO         2276    .ARM.Collect$$libshutdown$$00000006  c_w.l(libshutdown2.o)
    0x08000272   0x08000272   0x00000000   Code   RO         2279    .ARM.Collect$$libshutdown$$00000009  c_w.l(libshutdown2.o)
    0x08000272   0x08000272   0x00000000   Code   RO         2282    .ARM.Collect$$libshutdown$$0000000C  c_w.l(libshutdown2.o)
    0x08000272   0x08000272   0x00000000   Code   RO         2284    .ARM.Collect$$libshutdown$$0000000E  c_w.l(libshutdown2.o)
    0x08000272   0x08000272   0x00000000   Code   RO         2287    .ARM.Collect$$libshutdown$$00000011  c_w.l(libshutdown2.o)
    0x08000272   0x08000272   0x00000002   Code   RO         2288    .ARM.Collect$$libshutdown$$00000012  c_w.l(libshutdown2.o)
    0x08000274   0x08000274   0x00000000   Code   RO         2132    .ARM.Collect$$rtentry$$00000000  c_w.l(__rtentry.o)
    0x08000274   0x08000274   0x00000000   Code   RO         2156    .ARM.Collect$$rtentry$$00000002  c_w.l(__rtentry2.o)
    0x08000274   0x08000274   0x00000006   Code   RO         2168    .ARM.Collect$$rtentry$$00000004  c_w.l(__rtentry4.o)
    0x0800027a   0x0800027a   0x00000000   Code   RO         2158    .ARM.Collect$$rtentry$$00000009  c_w.l(__rtentry2.o)
    0x0800027a   0x0800027a   0x00000004   Code   RO         2159    .ARM.Collect$$rtentry$$0000000A  c_w.l(__rtentry2.o)
    0x0800027e   0x0800027e   0x00000000   Code   RO         2161    .ARM.Collect$$rtentry$$0000000C  c_w.l(__rtentry2.o)
    0x0800027e   0x0800027e   0x00000008   Code   RO         2162    .ARM.Collect$$rtentry$$0000000D  c_w.l(__rtentry2.o)
    0x08000286   0x08000286   0x00000002   Code   RO         2200    .ARM.Collect$$rtexit$$00000000  c_w.l(rtexit.o)
    0x08000288   0x08000288   0x00000000   Code   RO         2248    .ARM.Collect$$rtexit$$00000002  c_w.l(rtexit2.o)
    0x08000288   0x08000288   0x00000004   Code   RO         2249    .ARM.Collect$$rtexit$$00000003  c_w.l(rtexit2.o)
    0x0800028c   0x0800028c   0x00000006   Code   RO         2250    .ARM.Collect$$rtexit$$00000004  c_w.l(rtexit2.o)
    0x08000292   0x08000292   0x00000020   Code   RO            4    .text               main.o
    0x080002b2   0x080002b2   0x00000002   PAD
    0x080002b4   0x080002b4   0x00000a84   Code   RO          247    .text               oled.o
    0x08000d38   0x08000d38   0x0000016c   Code   RO          281    .text               mq3.o
    0x08000ea4   0x08000ea4   0x00000018   Code   RO          330    .text               buzzer.o
    0x08000ebc   0x08000ebc   0x0000022c   Code   RO          345    .text               wifi.o
    0x080010e8   0x080010e8   0x00000138   Code   RO          378    .text               uart.o
    0x08001220   0x08001220   0x00000220   Code   RO          406    .text               syscalls.o
    0x08001440   0x08001440   0x00000088   Code   RO          472    .text               stdlib.o
    0x080014c8   0x080014c8   0x00000134   Code   RO          557    .text               context_rvds.o
    0x080015fc   0x080015fc   0x0000060c   Code   RO          561    .text               cpuport.o
    0x08001c08   0x08001c08   0x00000228   Code   RO          577    .text               i2c_core.o
    0x08001e30   0x08001e30   0x0000019c   Code   RO          593    .text               i2c_dev.o
    0x08001fcc   0x08001fcc   0x000005c0   Code   RO          606    .text               i2c-bit-ops.o
    0x0800258c   0x0800258c   0x000001cc   Code   RO          636    .text               completion.o
    0x08002758   0x08002758   0x00000634   Code   RO          716    .text               dataqueue.o
    0x08002d8c   0x08002d8c   0x000004ec   Code   RO          738    .text               adc.o
    0x08003278   0x08003278   0x000002a8   Code   RO          759    .text               pin.o
    0x08003520   0x08003520   0x00000d24   Code   RO          774    .text               serial.o
    0x08004244   0x08004244   0x000002fc   Code   RO          792    .text               n32_msp.o
    0x08004540   0x08004540   0x00000040   Code   RO          825    .text               startup_n32g45x.o
    0x08004580   0x08004580   0x000000c4   Code   RO          832    .text               board.o
    0x08004644   0x08004644   0x00000588   Code   RO          867    .text               drv_gpio.o
    0x08004bcc   0x08004bcc   0x000001d4   Code   RO          923    .text               drv_soft_i2c.o
    0x08004da0   0x08004da0   0x000002a0   Code   RO          959    .text               drv_adc.o
    0x08005040   0x08005040   0x00000544   Code   RO          997    .text               drv_usart.o
    0x08005584   0x08005584   0x00000054   Code   RO         1033    .text               drv_common.o
    0x080055d8   0x080055d8   0x00000988   Code   RO         1061    .text               shell.o
    0x08005f60   0x08005f60   0x0000039c   Code   RO         1094    .text               msh.o
    0x080062fc   0x080062fc   0x00000e08   Code   RO         1111    .text               cmd.o
    0x08007104   0x08007104   0x00000828   Code   RO         1132    .text               timer.o
    0x0800792c   0x0800792c   0x000000b4   Code   RO         1167    .text               clock.o
    0x080079e0   0x080079e0   0x000003d4   Code   RO         1181    .text               scheduler.o
    0x08007db4   0x08007db4   0x000000d4   Code   RO         1199    .text               components.o
    0x08007e88   0x08007e88   0x00000434   Code   RO         1218    .text               object.o
    0x080082bc   0x080082bc   0x0000008c   Code   RO         1237    .text               irq.o
    0x08008348   0x08008348   0x000004bc   Code   RO         1252    .text               device.o
    0x08008804   0x08008804   0x0000202c   Code   RO         1265    .text               ipc.o
    0x0800a830   0x0800a830   0x00000ca4   Code   RO         1280    .text               kservice.o
    0x0800b4d4   0x0800b4d4   0x00000810   Code   RO         1300    .text               mem.o
    0x0800bce4   0x0800bce4   0x00000194   Code   RO         1314    .text               idle.o
    0x0800be78   0x0800be78   0x00000840   Code   RO         1332    .text               thread.o
    0x0800c6b8   0x0800c6b8   0x00000290   Code   RO         1355    .text               n32g45x_dma.o
    0x0800c948   0x0800c948   0x00000534   Code   RO         1451    .text               n32g45x_gpio.o
    0x0800ce7c   0x0800ce7c   0x000003ec   Code   RO         1475    .text               n32g45x_usart.o
    0x0800d268   0x0800d268   0x00000134   Code   RO         1547    .text               n32g45x_exti.o
    0x0800d39c   0x0800d39c   0x000005c8   Code   RO         1619    .text               n32g45x_adc.o
    0x0800d964   0x0800d964   0x00000510   Code   RO         1691    .text               n32g45x_rcc.o
    0x0800de74   0x0800de74   0x000000c8   Code   RO         1789    .text               misc.o
    0x0800df3c   0x0800df3c   0x00000234   Code   RO         1861    .text               system_n32g45x.o
    0x0800e170   0x0800e170   0x00000002   Code   RO         2062    .text               c_w.l(use_no_semi.o)
    0x0800e172   0x0800e172   0x00000002   PAD
    0x0800e174   0x0800e174   0x00000028   Code   RO         2068    .text               c_w.l(noretval__2sprintf.o)
    0x0800e19c   0x0800e19c   0x0000004e   Code   RO         2072    .text               c_w.l(_printf_pad.o)
    0x0800e1ea   0x0800e1ea   0x00000002   PAD
    0x0800e1ec   0x0800e1ec   0x00000078   Code   RO         2074    .text               c_w.l(_printf_dec.o)
    0x0800e264   0x0800e264   0x00000138   Code   RO         2088    .text               c_w.l(__printf_flags_wp.o)
    0x0800e39c   0x0800e39c   0x0000001a   Code   RO         2098    .text               c_w.l(atoi.o)
    0x0800e3b6   0x0800e3b6   0x00000024   Code   RO         2100    .text               c_w.l(strstr.o)
    0x0800e3da   0x0800e3da   0x00000058   Code   RO         2102    .text               c_w.l(memcmp.o)
    0x0800e432   0x0800e432   0x00000048   Code   RO         2104    .text               c_w.l(strcpy.o)
    0x0800e47a   0x0800e47a   0x0000003e   Code   RO         2106    .text               c_w.l(strlen.o)
    0x0800e4b8   0x0800e4b8   0x00000096   Code   RO         2108    .text               c_w.l(strncmp.o)
    0x0800e54e   0x0800e54e   0x00000018   Code   RO         2110    .text               c_w.l(strcat.o)
    0x0800e566   0x0800e566   0x00000064   Code   RO         2112    .text               c_w.l(rt_memcpy_w.o)
    0x0800e5ca   0x0800e5ca   0x0000004e   Code   RO         2114    .text               c_w.l(rt_memclr_w.o)
    0x0800e618   0x0800e618   0x00000056   Code   RO         2116    .text               c_w.l(strncpy.o)
    0x0800e66e   0x0800e66e   0x00000002   PAD
    0x0800e670   0x0800e670   0x00000080   Code   RO         2118    .text               c_w.l(strcmpv7m.o)
    0x0800e6f0   0x0800e6f0   0x00000006   Code   RO         2120    .text               c_w.l(heapauxi.o)
    0x0800e6f6   0x0800e6f6   0x00000002   PAD
    0x0800e6f8   0x0800e6f8   0x00000008   Code   RO         2136    .text               c_w.l(rt_errno_addr_intlibspace.o)
    0x0800e700   0x0800e700   0x000000b2   Code   RO         2138    .text               c_w.l(_printf_intcommon.o)
    0x0800e7b2   0x0800e7b2   0x00000002   PAD
    0x0800e7b4   0x0800e7b4   0x00000030   Code   RO         2140    .text               c_w.l(_printf_char_common.o)
    0x0800e7e4   0x0800e7e4   0x0000000a   Code   RO         2142    .text               c_w.l(_sputc.o)
    0x0800e7ee   0x0800e7ee   0x00000070   Code   RO         2145    .text               c_w.l(strtol.o)
    0x0800e85e   0x0800e85e   0x00000044   Code   RO         2147    .text               c_w.l(rt_memclr.o)
    0x0800e8a2   0x0800e8a2   0x00000002   PAD
    0x0800e8a4   0x0800e8a4   0x00000008   Code   RO         2152    .text               c_w.l(libspace.o)
    0x0800e8ac   0x0800e8ac   0x00000010   Code   RO         2170    .text               c_w.l(rt_ctype_table.o)
    0x0800e8bc   0x0800e8bc   0x0000009e   Code   RO         2174    .text               c_w.l(_strtoul.o)
    0x0800e95a   0x0800e95a   0x0000004a   Code   RO         2180    .text               c_w.l(sys_stackheap_outer.o)
    0x0800e9a4   0x0800e9a4   0x00000008   Code   RO         2185    .text               c_w.l(rt_locale_intlibspace.o)
    0x0800e9ac   0x0800e9ac   0x0000001c   Code   RO         2187    .text               c_w.l(_chval.o)
    0x0800e9c8   0x0800e9c8   0x00000012   Code   RO         2192    .text               c_w.l(exit.o)
    0x0800e9da   0x0800e9da   0x0000000e   Code   RO         2086    i._is_digit         c_w.l(__printf_wp.o)
    0x0800e9e8   0x0800e9e8   0x0000002c   Code   RO         2190    locale$$code        c_w.l(lc_ctype_c.o)
    0x0800ea14   0x0800ea14   0x00000018   Code   RO         2176    x$fpl$dcmpinf       fz_wm.l(dcmpi.o)
    0x0800ea2c   0x0800ea2c   0x00000026   Code   RO         2124    x$fpl$dfltu         fz_wm.l(dflt_clz.o)
    0x0800ea52   0x0800ea52   0x00000002   PAD
    0x0800ea54   0x0800ea54   0x00000078   Code   RO         2149    x$fpl$dleqf         fz_wm.l(dleqf.o)
    0x0800eacc   0x0800eacc   0x0000009c   Code   RO         2178    x$fpl$dnaninf       fz_wm.l(dnaninf.o)
    0x0800eb68   0x0800eb68   0x0000006c   Code   RO         2130    x$fpl$drleqf        fz_wm.l(drleqf.o)
    0x0800ebd4   0x0800ebd4   0x0000000a   Code   RO         2256    x$fpl$fpinit        fz_wm.l(fpinit.o)
    0x0800ebde   0x0800ebde   0x00000000   Code   RO         2151    x$fpl$usenofp       fz_wm.l(usenofp.o)
    0x0800ebde   0x0800ebde   0x00001d30   Data   RO          249    .constdata          oled.o
    0x0801090e   0x0801090e   0x0000000b   Data   RO          282    .constdata          mq3.o
    0x08010919   0x08010919   0x00000059   Data   RO          407    .constdata          syscalls.o
    0x08010972   0x08010972   0x00000013   Data   RO          562    .constdata          cpuport.o
    0x08010985   0x08010985   0x00000013   Data   RO          578    .constdata          i2c_core.o
    0x08010998   0x08010998   0x0000005e   Data   RO          594    .constdata          i2c_dev.o
    0x080109f6   0x080109f6   0x00000002   PAD
    0x080109f8   0x080109f8   0x0000000c   Data   RO          607    .constdata          i2c-bit-ops.o
    0x08010a04   0x08010a04   0x00000039   Data   RO          637    .constdata          completion.o
    0x08010a3d   0x08010a3d   0x00000086   Data   RO          717    .constdata          dataqueue.o
    0x08010ac3   0x08010ac3   0x0000003c   Data   RO          739    .constdata          adc.o
    0x08010aff   0x08010aff   0x00000088   Data   RO          761    .constdata          pin.o
    0x08010b87   0x08010b87   0x0000012a   Data   RO          775    .constdata          serial.o
    0x08010cb1   0x08010cb1   0x0000000d   Data   RO          793    .constdata          n32_msp.o
    0x08010cbe   0x08010cbe   0x00000002   PAD
    0x08010cc0   0x08010cc0   0x00000a54   Data   RO          868    .constdata          drv_gpio.o
    0x08011714   0x08011714   0x00000037   Data   RO          925    .constdata          drv_soft_i2c.o
    0x0801174b   0x0801174b   0x00000001   PAD
    0x0801174c   0x0801174c   0x0000002a   Data   RO          960    .constdata          drv_adc.o
    0x08011776   0x08011776   0x00000002   PAD
    0x08011778   0x08011778   0x00000068   Data   RO          999    .constdata          drv_usart.o
    0x080117e0   0x080117e0   0x00000087   Data   RO         1063    .constdata          shell.o
    0x08011867   0x08011867   0x0000000e   Data   RO         1095    .constdata          msh.o
    0x08011875   0x08011875   0x00000003   PAD
    0x08011878   0x08011878   0x00000064   Data   RO         1112    .constdata          cmd.o
    0x080118dc   0x080118dc   0x0000006c   Data   RO         1134    .constdata          timer.o
    0x08011948   0x08011948   0x0000004e   Data   RO         1183    .constdata          scheduler.o
    0x08011996   0x08011996   0x00000014   Data   RO         1200    .constdata          components.o
    0x080119aa   0x080119aa   0x00000080   Data   RO         1219    .constdata          object.o
    0x08011a2a   0x08011a2a   0x000000ba   Data   RO         1253    .constdata          device.o
    0x08011ae4   0x08011ae4   0x0000021b   Data   RO         1266    .constdata          ipc.o
    0x08011cff   0x08011cff   0x00000143   Data   RO         1282    .constdata          kservice.o
    0x08011e42   0x08011e42   0x00000045   Data   RO         1301    .constdata          mem.o
    0x08011e87   0x08011e87   0x000000bb   Data   RO         1333    .constdata          thread.o
    0x08011f42   0x08011f42   0x00000040   Data   RO         1692    .constdata          n32g45x_rcc.o
    0x08011f82   0x08011f82   0x00000010   Data   RO         1862    .constdata          system_n32g45x.o
    0x08011f92   0x08011f92   0x00000011   Data   RO         2089    .constdata          c_w.l(__printf_flags_wp.o)
    0x08011fa3   0x08011fa3   0x00000001   PAD
    0x08011fa4   0x08011fa4   0x00000063   Data   RO          776    .conststring        serial.o
    0x08012007   0x08012007   0x00000001   PAD
    0x08012008   0x08012008   0x00000281   Data   RO          869    .conststring        drv_gpio.o
    0x08012289   0x08012289   0x00000003   PAD
    0x0801228c   0x0801228c   0x00000005   Data   RO          926    .conststring        drv_soft_i2c.o
    0x08012291   0x08012291   0x00000003   PAD
    0x08012294   0x08012294   0x00000005   Data   RO          961    .conststring        drv_adc.o
    0x08012299   0x08012299   0x00000003   PAD
    0x0801229c   0x0801229c   0x000001a5   Data   RO         1113    .conststring        cmd.o
    0x08012441   0x08012441   0x00000003   PAD
    0x08012444   0x08012444   0x0000015a   Data   RO         1267    .conststring        ipc.o
    0x0801259e   0x0801259e   0x00000002   PAD
    0x080125a0   0x080125a0   0x000001a8   Data   RO         1302    .conststring        mem.o
    0x08012748   0x08012748   0x00000042   Data   RO         1334    .conststring        thread.o
    0x0801278a   0x0801278a   0x00000012   Data   RO          251    .rodata.name        oled.o
    0x0801279c   0x0801279c   0x00000011   Data   RO          741    .rodata.name        adc.o
    0x080127ad   0x080127ad   0x0000003e   Data   RO          795    .rodata.name        n32_msp.o
    0x080127eb   0x080127eb   0x00000015   Data   RO         1034    .rodata.name        drv_common.o
    0x08012800   0x08012800   0x00000066   Data   RO         1096    .rodata.name        msh.o
    0x08012866   0x08012866   0x000001b8   Data   RO         1114    .rodata.name        cmd.o
    0x08012a1e   0x08012a1e   0x00000002   PAD
    0x08012a20   0x08012a20   0x00000004   Data   RO         1201    .rti_fn.0           components.o
    0x08012a24   0x08012a24   0x00000004   Data   RO         1202    .rti_fn.0.end       components.o
    0x08012a28   0x08012a28   0x00000004   Data   RO          927    .rti_fn.1           drv_soft_i2c.o
    0x08012a2c   0x08012a2c   0x00000004   Data   RO          963    .rti_fn.1           drv_adc.o
    0x08012a30   0x08012a30   0x00000004   Data   RO         1203    .rti_fn.1.end       components.o
    0x08012a34   0x08012a34   0x00000004   Data   RO          579    .rti_fn.4           i2c_core.o
    0x08012a38   0x08012a38   0x00000004   Data   RO         1065    .rti_fn.6           shell.o
    0x08012a3c   0x08012a3c   0x00000004   Data   RO         1204    .rti_fn.6.end       components.o
    0x08012a40   0x08012a40   0x0000000c   Data   RO          252    FSymTab             oled.o
    0x08012a4c   0x08012a4c   0x0000000c   Data   RO          742    FSymTab             adc.o
    0x08012a58   0x08012a58   0x00000018   Data   RO          796    FSymTab             n32_msp.o
    0x08012a70   0x08012a70   0x0000000c   Data   RO         1035    FSymTab             drv_common.o
    0x08012a7c   0x08012a7c   0x00000024   Data   RO         1097    FSymTab             msh.o
    0x08012aa0   0x08012aa0   0x0000009c   Data   RO         1115    FSymTab             cmd.o
    0x08012b3c   0x08012b3c   0x00000020   Data   RO         2317    Region$$Table       anon$$obj.o
    0x08012b5c   0x08012b5c   0x00000110   Data   RO         2189    locale$$data        c_w.l(lc_ctype_c.o)


    Execution Region RW_IRAM1 (Exec base: 0x20000000, Load base: 0x08012c6c, Size: 0x000015d0, Max: 0x00014000, ABSOLUTE, COMPRESSED[0x00000098])

    Exec Addr    Load Addr    Size         Type   Attr      Idx    E Section Name        Object

    0x20000000   COMPRESSED   0x00000004   Data   RW          250    .data               oled.o
    0x20000004   COMPRESSED   0x0000000c   Data   RW          283    .data               mq3.o
    0x20000010   COMPRESSED   0x00000004   Data   RW          346    .data               wifi.o
    0x20000014   COMPRESSED   0x00000004   Data   RW          380    .data               uart.o
    0x20000018   COMPRESSED   0x00000010   Data   RW          563    .data               cpuport.o
    0x20000028   COMPRESSED   0x00000004   Data   RW          740    .data               adc.o
    0x2000002c   COMPRESSED   0x00000004   Data   RW          777    .data               serial.o
    0x20000030   COMPRESSED   0x00000004   Data   RW          794    .data               n32_msp.o
    0x20000034   COMPRESSED   0x000000c0   Data   RW          870    .data               drv_gpio.o
    0x200000f4   COMPRESSED   0x0000004c   Data   RW          962    .data               drv_adc.o
    0x20000140   COMPRESSED   0x00000040   Data   RW         1000    .data               drv_usart.o
    0x20000180   COMPRESSED   0x00000010   Data   RW         1064    .data               shell.o
    0x20000190   COMPRESSED   0x00000020   Data   RW         1135    .data               timer.o
    0x200001b0   COMPRESSED   0x00000004   Data   RW         1168    .data               clock.o
    0x200001b4   COMPRESSED   0x00000018   Data   RW         1184    .data               scheduler.o
    0x200001cc   COMPRESSED   0x000000b4   Data   RW         1220    .data               object.o
    0x20000280   COMPRESSED   0x00000009   Data   RW         1238    .data               irq.o
    0x20000289   COMPRESSED   0x00000003   PAD
    0x2000028c   COMPRESSED   0x00000018   Data   RW         1283    .data               kservice.o
    0x200002a4   COMPRESSED   0x00000008   Data   RW         1316    .data               idle.o
    0x200002ac   COMPRESSED   0x0000000c   Data   RW         1335    .data               thread.o
    0x200002b8   COMPRESSED   0x00000004   Data   RW         1863    .data               system_n32g45x.o
    0x200002bc        -       0x00000480   Zero   RW          248    .bss                oled.o
    0x2000073c        -       0x00000078   Zero   RW          379    .bss                uart.o
    0x200007b4        -       0x00000044   Zero   RW          760    .bss                pin.o
    0x200007f8        -       0x00000098   Zero   RW          924    .bss                drv_soft_i2c.o
    0x20000890        -       0x000000a8   Zero   RW          998    .bss                drv_usart.o
    0x20000938        -       0x00000081   Zero   RW         1062    .bss                shell.o
    0x200009b9   COMPRESSED   0x00000003   PAD
    0x200009bc        -       0x00000280   Zero   RW         1133    .bss                timer.o
    0x20000c3c        -       0x00000100   Zero   RW         1182    .bss                scheduler.o
    0x20000d3c        -       0x000000a4   Zero   RW         1281    .bss                kservice.o
    0x20000de0        -       0x00000190   Zero   RW         1315    .bss                idle.o
    0x20000f70        -       0x00000060   Zero   RW         2153    .bss                c_w.l(libspace.o)
    0x20000fd0        -       0x00000200   Zero   RW          823    HEAP                startup_n32g45x.o
    0x200011d0        -       0x00000400   Zero   RW          822    STACK               startup_n32g45x.o


==============================================================================

Image component sizes


      Code (inc. data)   RO Data    RW Data    ZI Data      Debug   Object Name

      1260        536         89          4          0       4203   adc.o
       196         30          0          0          0      31419   board.o
        24          0          0          0          0        488   buzzer.o
       180          6          0          4          0       1936   clock.o
      3592       1284       1117          0          0      13629   cmd.o
       460        128         57          0          0       4827   completion.o
       212         42         36          0          0       2590   components.o
       308         28          0          0          0        828   context_rvds.o
      1548        738         19         16          0       5099   cpuport.o
      1588        180        134          0          0       8160   dataqueue.o
      1212        286        186          0          0       4735   device.o
       672        160         51         76          0       2467   drv_adc.o
        84          0         33          0          0       1783   drv_common.o
      1416         28       3285        192          0       7179   drv_gpio.o
       468         38         64          0        152       3744   drv_soft_i2c.o
      1348        150        104         64        168      35558   drv_usart.o
      1472        200         12          0          0       6869   i2c-bit-ops.o
       552        144         23          0          0       3779   i2c_core.o
       412         66         94          0          0       2660   i2c_dev.o
       404         30          0          8        400       5938   idle.o
      8236       1138        885          0          0      22037   ipc.o
       140         14          0          9          0       2080   irq.o
      3236        344        323         24        164      15854   kservice.o
        32          0          0          0          0     391525   main.o
      2064        672        493          0          0       4861   mem.o
       200         20          0          0          0       2025   misc.o
       364        124         11         12          0       1531   mq3.o
       924        178        152          0          0       4912   msh.o
       764        190         99          4          0       3587   n32_msp.o
      1480         38          0          0          0      12831   n32g45x_adc.o
       656         10          0          0          0       5590   n32g45x_dma.o
       308          8          0          0          0       2694   n32g45x_exti.o
      1332         46          0          0          0       6920   n32g45x_gpio.o
      1296         66         64          0          0      12473   n32g45x_rcc.o
      1004         30          0          0          0       8423   n32g45x_usart.o
      1076        202        128        180          0       9805   object.o
      2692        106       7502          4       1152       9566   oled.o
       680        114        136          0         68       4771   pin.o
       980        148         78         24        256       5063   scheduler.o
      3364        434        397          4          0       9973   serial.o
      2440        220        139         16        129       7903   shell.o
        64         26        408          0       1536        904   startup_n32g45x.o
       136         36          0          0          0        904   stdlib.o
       544        122         89          0          0       5272   syscalls.o
       564         56         16          4          0       2247   system_n32g45x.o
      2112        428        253         12          0      11076   thread.o
      2088        336        108         32        640       7947   timer.o
       312         70          0          4        120       2536   uart.o
         0          0          0          0          0       2536   waitqueue.o
       556        212          0          4          0       1590   wifi.o
         0          0          0          0          0       2464   workqueue.o

    ----------------------------------------------------------------------
     57054       9462      16644        700       4788     729791   Object Totals
         0          0         32          0          0          0   (incl. Generated)
         2          0         27          3          3          0   (incl. Padding)

    ----------------------------------------------------------------------

      Code (inc. data)   RO Data    RW Data    ZI Data      Debug   Library Member Name

        90          0          0          0          0          0   __dczerorl2.o
         8          0          0          0          0         68   __main.o
       312          4         17          0          0         92   __printf_flags_wp.o
        14          0          0          0          0         68   __printf_wp.o
         0          0          0          0          0          0   __rtentry.o
        12          0          0          0          0          0   __rtentry2.o
         6          0          0          0          0          0   __rtentry4.o
        52          8          0          0          0          0   __scatter.o
        28          0          0          0          0          0   __scatter_zi.o
        28          0          0          0          0         68   _chval.o
        48          6          0          0          0         96   _printf_char_common.o
         6          0          0          0          0          0   _printf_d.o
       120         16          0          0          0         92   _printf_dec.o
       178          0          0          0          0         88   _printf_intcommon.o
        78          0          0          0          0        108   _printf_pad.o
         0          0          0          0          0          0   _printf_percent.o
         4          0          0          0          0          0   _printf_percent_end.o
